:040000008A11112828
:10000800FE00030EF3000408F4000A08F50083124A
:1000180003137F08F6008A1124288A111328FD018A
:10002800F701F801F901FA01FB01FC01A001A101A6
:10003800A201A301A401A501A60183018A118429B3
:100048000C1C56288E018F01071A34280130F00045
:100058007008FC0702307C02031C34280716FC01D8
:10006800871A40280130F0007008F707023077023D
:10007800031C40288716F7010130F0007008FA07C2
:100088007A0A031D5328FA01F901FD11A60110107F
:10009800051205160716871687157D156300831246
:1000A80003130C100B1C7729F930F0005B28F00BB8
:1000B8005A285E285F280A30F0007008F800FA0114
:1000C80083120313101C10147D1D6D287D11051259
:1000D8007729051CAC28071C7428F801F80A1E2982
:1000E800871C78280430CB28071D7C280730CB28AC
:1000F800871D1E29F901FD11FD1CA1287D1C8628DC
:100108007D1091280130F0007008A6070330260200
:10011800031C9128A6017D14AA016400831203130D
:1001280087121930F1005830F000F00B9928F10BC4
:10013800992800008312031387160B102930F10049
:100148009430F000F00BA628F10BA62800007729C0
:10015800851CBE28071CB2280230CB28871CB6286D
:100168000530CB28071DBA280830CB28871D1E2943
:10017800F8011E29051D1E29071CC4280330CB2899
:10018800871CC8280630CB28071DCF280930F00067
:100198007008F8001E29871D1E297D181329FD1CCB
:1001A800DA288512FD10051205121029FD190E29ED
:1001B80079082A06031D0E29051607168516FD144B
:1001C800051664008312031387121930F1005830A2
:1001D800F000F00BED28F10BED280000831203135B
:1001E80087161930F1005830F000F00BF928F10BA0
:1001F800F92800008312031387121930F1005830D0
:10020800F000F00B0529F10B0529000083120313F8
:100218008716102907128712FD11F901A6010B1084
:100228002930F1009430F000F00B1829F10B18294F
:10023800000077290A307802031876297D1C4629A0
:100248007808F000F101831203132A08F2007207FC
:10025800203E8400700883138000840A710880009F
:100268000130F0007008AA07640083120313871294
:100278001930F1005830F000F00B4029F10B4029FB
:1002880000006929FD186C29FD195C297908F0001E
:100298007007203E840083130008F1007108FB00FA
:1002A8000130F0007008F9077B087806031DFD157A
:1002B80064008312031387121930F1005830F000DC
:1002C800F00B6429F10B64290000831203138716CD
:1002D80064002930F1009430F000F00B7129F10B23
:1002E800712900000B10760883120313FF007508AC
:1002F8008A0074088400730E8300FE0E7E0E0900C7
:1003080048308B002130831603138F0083120313A8
:100318008C018130831603138C008F3081000730E5
:1003280085009101950107309600831203139F0100
:10033800073099009A018316031399018701303019
:100348008312031390007D10FD11FD107D11003004
:100358008A11DC218A1183120313A9002908AA0033
:10036800F901FA01FC01A60185120512051207160A
:10037800871610148B17831203130708F0390138F6
:1003880087006400831203130708F03902388700D6
:100398006400831203130708F039043887006400E7
:1003A800831203130708F039083887006400BF294F
:1003B80083120313A800E22983120313640083162F
:1003C80003139C18E02983120313280883160313C8
:1003D8009B003F3083120313A700270883160313DB
:1003E8009C051C1403101C1803140030031801305A
:0403F8001A080800D7
:02400E008CF232
:104200000000FF00FF00FF00FF00FF00FF00FF00B5
:00000001FF
