:0600000000F049EF00F0E2
:10000800FFFFFACF01F0FBCF02F0E9CF03F0EACF10
:1000180004F0E1CF05F0E2CF06F0D9CF07F0DACF50
:1000280008F0F3CF09F0F4CF0AF0F6CF0BF0F7CFD2
:100038000CF0F8CF0DF0F5CF0EF09EA601D001D050
:1000480006D09E96C9CF0FF00FC08CFF00D00EC00F
:10005800F5FF0DC0F8FF0CC0F7FF0BC0F6FF0AC094
:10006800F4FF09C0F3FF08C0DAFF07C0D9FF06C0D4
:10007800E2FF05C0E1FF04C0EAFF03C0E9FF02C0D8
:10008800FBFF01C0FAFF1100FFFF7BEF00F0FFFF4D
:10009800FFFFD09EC00EF26E000E9E6E9F68080E87
:1000A8009D6E000EF16E9368000E956E3F0EC7169A
:1000B800220EC66ED30E946EFFFF11508118D8B46D
:1000C800FBD781CF11F0C7A007D0C9CF10F010C05F
:1000D8008CFF02D0FFFFC69EFFFF11C0C9FFC6AE4E
:1000E800EBD7F8D7FFFFFFFFFFFFFFFFFFFF000180
:0400F8004CEF00F0D9
:020000040020DA
:08000000FFFFFFFFFFFFFFFF00
:020000040030CA
:04000000FF220F0EBE
:0800060085FF0FC00FE00F4061
:00000001FF
