:040000000AEF00F013
:10000800FACF01F0FBCF02F003ED04F0E2EF04F0C9
:100800000100000000000600E9CF03F0EACF04F089
:10081000E1CF05F0E2CF06F0D9CF07F0DACF08F04C
:10082000F3CF09F0F4CF0AF0F6CF0BF0F7CF0CF0CE
:10083000F8CF0DF0F5CF0EF0F2A201D001D002D02A
:10084000F29200D0F0A001D001D00FD0F090000EB5
:10085000186E000E176E00011A8200011A90808A2D
:10086000000ED76E000ED66E00D0F0A201D001D0DF
:100870000BD0F092000E186E000E176E828E000ED6
:10088000B36E000EB26E00D09EAC01D001D001D08C
:100890009E9CF2A001D001D001D0F290F2A401D030
:1008A00001D02ED0F29400011AA201D001D009D0BB
:1008B00000011A92828C000EB36E000EB26E809A06
:1008C0001FD000011A801AA001D001D004D000016D
:1008D0001A90809A15D0174A182A8F0E175C000EAE
:1008E0001858D8A001D001D00BD0000E186E000E01
:1008F000176E00011A84F08203D002D001D000D01C
:1009000000D00EC0F5FF0DC0F8FF0CC0F7FF0BC004
:10091000F6FF0AC0F4FF09C0F3FF08C0DAFF07C002
:10092000D9FF06C0E2FF05C0E1FF04C0EAFF03C033
:10093000E9FF02C0FBFF01C0FAFF1100F29E0001B7
:100940001A96DF0E926E6D96B59EB59C070EB46E2C
:100950009368F18EC69A6590639A060E946EAB9E6C
:10096000AC9A000E956E849EF80E966E6398D09E9B
:10097000F28CF292F19CF288F090F19AF09CF08661
:10098000F092F198F09EF088F290F190F286F29455
:10099000F194850ED56EF28AC90EB16EA192A29223
:1009A000A0829E9C9F9C000EC26E1D0EC16E970E73
:1009B000C06E9D8C050EBD6E000EBA6EF28E81A0CB
:1009C000808AFFD71A6A00EE0FF00B0EEE6AE80677
:0C09D000FDE1000EF86E00019EEF04F047
:020000040020DA
:08000000FFFFFFFFFFFFFFFF00
:020000040030CA
:0E00000038081E00FF8180FF0FC00FE00F4088
:00000001FF
