:060000000A128A11122809
:10000800FE00030EF9000408FA000A08FB00831238
:1000180003137F08FC000A128A1122280A128A1187
:100028001528FD01B00183132030840030300A12F6
:100038008A11002783010A128A11942A0C1CB028FD
:10004800310A0319AF280130F6007608AA077D1F88
:100058007A287D1A52280330F0000030F1002A086F
:10006800F600F7017608F2007708F3000A128A1101
:1000780055260A128A1170087104031D5228FD1EA4
:100088004828831203137D28831203138030B00697
:10009800B01F502807116E2807156E287D1E71287D
:1000A80083120313301B7128B01F682807100B3008
:1000B800F8002630F7006630F600F60B6128F70BDB
:1000C8006128F80B61286828831203130715B013F9
:1000D800871430170714FD167F287D1A7F2883128E
:1000E8000313301F7F28871030137F287D1FFD1EC4
:1000F8007F280710FD127230831203132A02031C93
:10010800AF28AA01FE303106031D92280130F600FF
:100118007608A8071430280203188813301DB01970
:100128009728301E9F280130F6007608AC070A3061
:100138002C0203180514FD1CA9280130F6007608C6
:10014800A7070A302702031805147D1FAF280130BE
:10015800F6007608A9070C108C1C6A290918BA2819
:100168000A128A11B4260A128A11872AFD187D18E4
:10017800C02888147D14C528FD1C7D1CC52888103E
:100188007D108918CA280810FD113010FD19301883
:10019800D5288918D2280810FD11D9280814301438
:1001A800DA28FD1D301CDA28081030103019B01973
:1001B8000229301EB01A02298815A401A5010030B1
:1001C8002502033003192402031858290A128A1138
:1001D800D0260A128A1164004130F700EE30F6008A
:1001E800F60BF428F70BF4280000013083120313F0
:1001F800A4070318A50A0030A507E328301DB01D81
:100208002A29301EB01A2A298815A401A501003010
:100218002502063003192402031858290A128A11E4
:10022800D0260A128A1164004130F700EE30F60039
:10023800F60B1C29F70B1C2900000130831203134D
:10024800A4070318A50A0030A5070B29301DB0190B
:100258005A29301AB01A5A298815A401A501003064
:100268002502093003192402031858290A128A1191
:10027800D0260A128A1164004130F700EE30F600E9
:10028800F60B4429F70B44290000013083120313AD
:10029800A4070318A50A0030A50700302502093075
:1002A80003192402031C3A29B0166929301DB01914
:1002B8006929301EB01E692988110A128A11082777
:1002C8000A128A1183120313B0128C108B1CD129C5
:1002D800C330F700CD30F600F60B7029F70B702904
:1002E800FE30831203133106031D922908151030BE
:1002F800F7009430F600F60B7F29F70B7F290000F2
:1003080083120313091C90292B08F6007608B10004
:10031800101412150812A0290816A029310A031D65
:100328009B290A128A1105240A128A11A0290A1285
:100338008A11B4260A128A11003083120313A3000B
:100348000030A2000030A1000030A0000618D0291B
:100358006400013083120313A00700300318013032
:10036800A107003003180130A2070030031801303C
:10037800A3072308031DCE2903302202031DCC291D
:10038800D0302102031DCC2990302002031DCC2936
:10039800031CAA290514AA298B100B1C872AC33011
:1003A800F700CD30F600F60BD729F70BD7298312C3
:1003B8000313861EE129EC29640083120313861EA9
:1003C800E029B01CEA29B0108812EC29B01488166C
:1003D800061EF029FB29640083120313061EEF2969
:1003E8000430FD067D1DFA290817FB290813861F0E
:1003F800FF29702A640083120313861FFE29FE302A
:100408003106031D292A0E30F0000030F1002B08B8
:10041800013EF200003003180130F3000A128A117D
:1004280055260A128A117008F600760883120313FB
:10043800AB000F300705F6002B08F7000330031058
:10044800F70DFF3E031D232A6C2A310A031D702A6B
:100458003208F600F701F61BF70300307702073081
:100468000319760203184A2A0730F0000030F10019
:100478002D08013EF200003003180130F3000A1283
:100488008A1155260A128A1170085C2A0730F00072
:100498000030F1002D08013EF20000300318013051
:1004A800F3000A128A1155260A128A117008073EAB
:1004B800F600760883120313AD000F300705F60027
:1004C8002D08F70003300310F70DFF3E031D672AC0
:1004D8000310770D76048700061F742A862A6400A5
:1004E80083120313061F732AFE303106031D310AD7
:1004F800031D862A2F08F6007608AE002D08F600A0
:100508007608AF000B107C0883120313FF007B08EA
:100518008A007A088400790E8300FE0E7E0E090098
:100528008B138316031388138312031388178316F8
:100538000313051083120313051058308B00033082
:10054800831603138C008D01831203138C018D0114
:100558000F30831603138100831203139F010730A2
:10056800831603139F0007309C009D018312031319
:100578009412831603138501FF3086008312031338
:1005880097019D019813831603138701880103308F
:100598008900831203138101303090007B30920070
:1005A800FF308316031392000A128A1121260A12B9
:1005B8008A118B172C2B0A128A11E3250A128A1129
:1005C8002C2B0A128A11A4250A128A112C2B0A1222
:1005D8008A1163250A128A112C2B0A128A111A25EC
:1005E8000A128A112C2B0A128A1185230A128A11DF
:1005F8002C2B0A128A11CE240A128A112C2B0A12C9
:100608008A1187260A128A112C2B0A128A11152799
:100618000A128A112C2B0A128A1114270A128A111B
:100628002C2B0A128A1113270A128A112C2B0A1250
:100638008A1112270A128A112C2B0A128A111127E1
:100648000A128A112C2B0A128A1110270A128A11EF
:1006580064008312031331080319DF2A831203137A
:1006680031030319E52A02308312031331060319F3
:10067800EB2A03308312031331060319F12A0430DD
:100688008312031331060319F72A05308312031363
:1006980031060319FD2A06308312031331060319A4
:1006A800032B07308312031331060319092B083073
:1006B80083120313310603190F2B09308312031316
:1006C80031060319152B0A30831203133106031957
:1006D8001B2B0B308312031331060319212B0C300B
:1006E8008312031331060319272B0D3083120313CA
:1006F8003106031D2C2B0A128A110F270A128A11A0
:100708002C2B8312031307080F3940388700FD117B
:100718007D170A128A11E5260A128A118312031319
:10072800AC01B0157D199A2BA02B6400831203131A
:10073800061DA42B992B64008312031386189F2B84
:10074800B011A901831203132908031DAD2B6400FE
:10075800A62B0A128A11E5260A128A11831203139C
:10076800AC01B0157D19BA2BC02B6400831203139A
:10077800061DC42BB92B6400831203138618BF2BE4
:10078800B011A901831203132908031DCD2B64009E
:10079800C62B0A128A11E5260A128A11831203133C
:1007A800AC01B0157D19DA2BE02B6400831203131A
:1007B800061DE42BD92B6400831203138618DF2B44
:1007C800B011A901831203132908031DED2B64003E
:1007D800E62B0A128A11E5260A128A118B130430B5
:1007E80083120313B4003408B20004303306031D27
:1007F800FF2B2B08002C0530B4003408B1008B17F0
:1008080008008312031308151030F1009430F0002B
:10081800F00B0C2CF10B0C2C00008312031309189D
:10082800172C0816080008123208F0007008B100EA
:10083800FD1A0714301808147D188814B01A881582
:10084800FE302E060319602C2E08F000F101F01B73
:10085800F103003071020730031970020318402CAD
:100868002F08F000F101F01BF1030030710207308E
:1008780003197002031C582C2E08F000F101F01B1C
:10088800F10300307102073003197002031C602C59
:100898002F08F000F101F01BF1030030710207305E
:1008A80003197002031C602C2E08F0007008B300B6
:1008B8002F08F0007008AB00101412150F30070550
:1008C800F0003108F10003300310F10DFF3E031D65
:1008D800682C0310710D700487000800F000B32C19
:1008E80083120313051185118514851208008312DC
:1008F8000313851185128514051508008312031347
:1009080085118512051585100800831203138510BB
:1009180085120515851508008312031385108512A5
:100928008515051108008312031385100511851517
:100938008516080083120313851005118516851185
:100948000800831203130511851185168514080004
:10095800831203138510051185118512080070088C
:10096800003A0319742C013A03197B2C033A031932
:10097800822C013A0319892C073A0319902C013A61
:100988000319972C033A03199E2C013A0319A52C35
:10099800AC2C08008312031307080F39503887005E
:1009A800FD117D170A128A11E5260A128A1183128F
:1009B8000313B018E92C7D16A90183120313290823
:1009C800031DE82C6400E12C7D12AC0130167D1962
:1009D800EF2CF52C640083120313061DF92CEE2C62
:1009E8006400831203138618F42C3012A9018312B1
:1009F80003132908031D022D6400FB2C0A128A1117
:100A0800E5260A128A118B13053083120313B400EA
:100A18003408B20005303306031D142D2B08152D9C
:100A28000630B4003408B1008B1708008312031392
:100A380007080F3930388700320303192D2D02308B
:100A4800320603192D2D7D130A128A11E5260A1282
:100A58008A1183120313AC01B015FD157D19362DCB
:100A68003C2D640083120313061D402D352D6400B0
:100A78008312031386183B2DB0117D17A901831229
:100A880003132908031D4A2D6400432D7D130A1200
:100A98008A11E5260A128A118B1303308312031375
:100AA800B4003408B20003303306031D5D2D2B0853
:100AB8005E2D0430B4003408B1008B17080083128F
:100AC800031307080F392038870032030319762DDE
:100AD800033032060319762D7D130A128A11E52692
:100AE8000A128A1183120313AC01B015FD157D1982
:100AF8007F2D852D640083120313061D892D7E2DFD
:100B08006400831203138618842DB011A9017D1780
:100B1800831203132908031D932D64008C2D8B1356
:100B28000230B4003408B20002303306031D9E2D93
:100B38002B089F2D0330B4003408B1008B17080030
:100B48008312031307080F39103887007D1302300A
:100B580032060319B82D033032060319B82D0A12CC
:100B68008A11E5260A128A1183120313AC01B01503
:100B7800FD157D19C12DC72D640083120313061DB1
:100B8800CB2DC02D6400831203138618C62DB01117
:100B98007D17A901831203132908031DD52D6400AD
:100BA800CE2D8B13B201B20A3303031DDD2D2B08A2
:100BB800DE2D0230B4003408B1008B170800831210
:100BC800031307080F3987007D130A128A11E526D7
:100BD8000A128A1183120313AC013015FD15831212
:100BE8000313061DF92D6400F32D7D127D177D1D5D
:100BF800FF2D032E6400831203138618FE2D301177
:100C0800A901831203132908031D0C2E6400052E65
:100C18000A128A11E5260A128A118B13831203130A
:100C2800B2013308031D1D2E2B08B4003408B1008F
:100C38001F2EB101B10A8B170800FE30831203136F
:100C4800B4003408B100FE30B4003408B200FE30FD
:100C5800B4003408B300AB01AA01071087100715C8
:100C68007D13FD127D12A90188113011B0113012C7
:100C7800B0128510051185118512AC018810FD1080
:100C88007D10A70108103010FD11B0107D1108115A
:100C980007080F3987008E018F0110149101121176
:100CA8000800700871040319822EF501F50AF11B7A
:100CB800692E01300310F00DF10DFF3E031D5E2E6D
:100CC8000130F4007408F5075B2E71087302031DE8
:100CD8006F2E70087202031C772E7008F2027108DA
:100CE800031CF303F30201300310F10CF00CFF3E78
:100CF800031D782E0130F502031D692E7308F100DB
:100D08007208F000080083120313B018A12E070818
:100D18000F3960388700FD110A128A11E5260A1278
:100D28008A117D167D1783120313A90183120313F9
:100D38002908031DA12E64009A2E8B130630B500D6
:100D48003508B20006303306031DAF2E2B08B50058
:100D58003508B100B22E0A128A1121268B17080015
:100D680083120313101012110710881008100811AD
:100D780088113108F0007008AD003108F0007008E3
:100D8800B200B101B103FE30F0007008AE00FE30D1
:100D9800F0007008AF000800F201F30100307302A0
:100DA800083003197202031808000A128A11F32680
:100DB8000A128A110130F2070318F30A0030F30708
:100DC800D22E83120313861D0800A701FD14831277
:100DD8000313861DF12E6400EB2EFD10080083120C
:100DE80003132608013E0739F1007108A6002608FA
:100DF8000A128A117224080064008001840A040619
:100E0800031900340406012F8312031385100511FA
:100E1800851185120800080008000800080008006D
:040E280008000800B6
:02400E00751823
:00000001FF
