:060000000A128A11122809
:10000800FE00030EF6000408F7000A08F800831241
:1000180003137F08F9000A128A1122280A128A118A
:100028001528FA01FB018313203084005A300A1284
:100038008A11FD2383010A128A11232A0C1CD7284E
:100048000C107C0A0319162A0130F3007308D6072E
:100058007A1A87183D280130F3007308D3070A304D
:100068005302031C3D28D301FA1E3C2807103D28E3
:10007800071439305602031CD728D6010130F30083
:100088007308D107FE307C06031D4F281430510237
:10009800031C4F2888137A1FFA1B54287B1C6228DC
:1000A8000130F3007308D8070A305802031C62288D
:1000B800D8010A128A11ED230A128A11FA1C74282F
:1000C8000130F300730883120313D0070A3050027B
:1000D800031C7428D0010A128A11ED230A128A110E
:1000E8007A1ED7280130F300730883120313D4074C
:1000F80055085402031CD7287C0803199328033099
:100108007C060319932804307C06031993280530CC
:100118007C060319932807307C06031D9F28881442
:10012800FA1403307C06031D9D2807107A12FA1270
:10013800D301D401D72808307C06031DA9280A1248
:100148008A1193230A128A11D7287C088312031371
:100158005706031DB9285E08F3007308D2000A1277
:100168008A1112230A128A11162A7C08013EF3000A
:100178007308FC007C08F300730883120313DD0086
:1001880007307C06031DD22807107A12FA12D40110
:10019800D3018710071105157B14D7280A128A1175
:1001A800BC220A128A11831203138C1C82298C1018
:1001B8007A1C0918E7287A1408120A128A11ED2302
:1001C8000A128A11162A7A18091CED287A100816BC
:1001D800162A7C0A0319162A831203130818891889
:1001E800F7280810FA11051C8518FC28051D222976
:1001F800861C0129061D7A1D0D2905107A13851004
:10020800FA1305117B100A128A11BC220A128A11EC
:10021800162A061922297A117A1D22297C0803191F
:10022800192907307C06031D22297A1A22298710EA
:100238000711D401D30107147A16FA16831203138F
:1002480088188619822908307C0603198229063005
:100258007C06031982298810FA107C085706031DAA
:100268003F295E08F3007308D2000A128A1112238C
:100278000A128A11162A7C08831203135D06031DCD
:100288004A297C08013EF3007308FC007C08F3004F
:10029800730883120313DD007C08031D5629051417
:1002A8007A17722907307C06031D5D2905157B1412
:1002B80072297C030319702902307C0603197029FE
:1002C80003307C060319702904307C060319702951
:1002D80005307C06031D72298514FA177C0303195F
:1002E800822902307C060319822903307C0603190F
:1002F80082290A128A11BC220A128A118B1CD4295B
:100308008B10FE307C06031D7C0A031DCF297A1C46
:100318009129831203130812162A831203135E0805
:10032800803AF3005708803AF3020318A7295708C0
:10033800F3007308D9005E08F3007308D700590862
:10034800F3007308DE00FE307C06031DC92952083D
:10035800F3007308DD00063052060319B729083088
:100368005206031DBC29071187147A16FA16C929E3
:10037800FA155208031DC2297A17C92907305206EF
:10038800031DC8297B14C929FA170A128A111223D6
:100398000A128A11D4290A128A11ED230A128A1123
:1003A8000B1C162A0B1083120313861EDB29061E4C
:1003B800162AFE307C06031D7C0A031D162A861B9E
:1003C8000C2A5208013E0F39F3007308D200053099
:1003D80052060319F32907305206031DF729013085
:1003E800F3007308D2070F300705F3005208F40032
:1003F8007407203E840083130008F50003300310BF
:10040800F50DFF3E031D032A0310750D73048700C5
:10041800061B162A5E08F3007308D7005208F3007B
:100428007308DE00790883120313FF0078088A0036
:1004380077088400760E8300FE0E7E0E09008B136B
:1004480083160313881383120313881758308B00FD
:100458000330831603138C008D01831203138C0160
:100468008D010F30831603138100831203139F013C
:100478000730831603139F0007309C009D018312E9
:1004880003139412831603138501FF308600831229
:10049800031397019D01981383160313870188019D
:1004A80007308900831203138101303090007B30BC
:1004B8009200FF308316031392000A30831203134D
:1004C800DC005C08C000A001A101C1010130A2004C
:1004D8000030A300C2010230A4000030A500C3010F
:1004E8000330A6000030A700C4010430A800003083
:1004F800A900C5010430AA000030AB00C6010530D0
:10050800AC000030AD00C7010530AE000030AF00D0
:10051800C8010630B0000030B100C9010730B20090
:100528000030B300CA010830B4000030B500CB0178
:100538000930B6000030B700CC010A30B8000030EE
:10054800B900CD010B30BA000030BB00CE010C3031
:10055800BC000030BD00CF010D30BE000030BF0030
:100568000A128A1158230A128A118B176400BA2AB0
:100578007A1AC22A83120313D301071106307C06A4
:100588000319CA2A08307C06031DEE2A7D1CE32ABB
:100598008312031307110230F2004530F100A9302D
:1005A800F000F00BD52AF10BD52AF20BD52ADC2A5C
:1005B800831203138714D3018814FA14EE2A7C08D3
:1005C800403E840083130008F00070088312031370
:1005D800D40008007C08403E840083130008F00023
:1005E800700883120313D500D40107147A16FA167B
:1005F8000F300705F0007C08F1007107203E8400E9
:100608000008F20003300310F20DFF3E031D072B14
:100618000310720D70048700081608008312031374
:1006280052085D060319482BFE307C0603193E2B41
:1006380052030319272B023052060319272B0330C4
:100648005206031D322B5D030319372B02305D065A
:100658000319372B03305D060319372BFA147A1365
:10066800FA137B103B2B5208F0007008DD0087104E
:100678007A16FA16D401D3015208403E8400831337
:100688000008F0007008D5005208F0007008D90082
:100698007C08F0007008D2005908F0007008FC00CF
:1006A8000A128A11CE230800FE3083120313DA00DF
:1006B8005A08FC00D201FE30DA005A08DD00D701E2
:1006C800DE01DE0AD601D101071087100711D40117
:1006D800D501D301FA127A12051085100511D80137
:1006E8007A13FA137B108810FA10D0010810FA1147
:1006F8007D147A110F300705DA002008DB0003307B
:100708000310DB0DFF3E031D842B03105B0D5A0401
:1007180087008E018F011014910112150800FE3018
:10072800F0007008FC0083120313D201FE30F000C1
:100738007008DD00D701DE01DE0AD601D1010710FD
:1007480087100711D401D501D301FA127A120510C6
:1007580085100511D8017A13FA137B108810FA1046
:10076800D0010810FA117D147A110F300705F00036
:100778002008F10003300310F10DFF3E031DBF2BCD
:100788000310710D700487008E018F011014910100
:1007980012150800831203130918D42B0812080035
:1007A800081610147A1AFA1EDA2B0714FA1DDD2B14
:1007B8000814FA1CE12B881408007A1FE52B05148D
:1007C8000800FA1FE92B851408007B1C0800051592
:1007D8000800831203131010051085100511071067
:1007E800881008107C08F0007008D200FC01FC0397
:1007F800080064008001840A040603190034040612
:02080800FE2BC5
:02400E0075D863
:00000001FF
