:020000040040BA
:10000000E0100020B1024000B9024000BB024000F5
:10001000BD024000BF024000C102400000000000DD
:10002000000000000000000000000000E9014000A6
:10003000C502400000000000610240009D02400037
:10004000CB024000CB024000CB024000CB0240007C
:10005000CB024000CB024000CB0240000000000079
:10006000CB024000CB02400000000000CB02400069
:10007000CB024000CB024000CB024000CB0240004C
:10008000000000000000000000000000CB02400063
:10009000CB024000CB02400000000000CB02400039
:1000A000CB024000CB024000CB024000CB0240001C
:1000B000CB024000CB024000CB024000CB0240000C
:1000C00000F002F800F03AF80AA090E8000C824430
:1000D0008344AAF10107DA4501D100F02FF8AFF20D
:1000E000090EBAE80F0013F0010F18BFFB1A43F016
:1000F00001031847D0170000F0170000103A24BF82
:1001000078C878C1FAD8520724BF30C830C144BF7C
:1001100004680C60704700000023002400250026BE
:10012000103A28BF78C1FBD8520728BF30C148BF5A
:100130000B6070471FB51FBD10B510BD00F0EEF885
:100140001146FFF7F7FF0FB400F00CF80FBC00F0FA
:10015000CFFA00F0D1F803B4FFF7EEFF03BC00F0D4
:10016000D7F8000004B000F0CFFA0448002100F0F6
:100170001FFB00F0DBFA00F0BFF8000014000020C5
:1001800080F309887047EFF309807047684680F371
:10019000098804480078C00714BF0220032080F3B8
:1001A0001488704784184000DFF818C0EFF3058307
:1001B0001B0618BF6047EFF31483DB0708BF6047D7
:1001C00000DF70477F084000DFF818C0EFF30583B9
:1001D0001B0618BF6047EFF31483DB0708BF6047B7
:1001E00000DF70475D0A4000EFF30980816911F874
:1001F000021CF1B990E80F10E047EFF3098C8CE88E
:100200000700144B93E8060091420FD039B12CE956
:10021000F00FC1F828C00CB400F0AAFF0CBC1A60A3
:10022000D2F828C0BCE8F00F8CF309886FF0020EFA
:10023000704710B5084A1268914209D8074C54F823
:10024000214090E80F10A047EFF3098C8CE80F00D5
:1002500010BD00002C00002068034000680340002F
:1002600000F058FE0C4B93E80600914210D0EFF3DB
:10027000098C2CE9F00FC1F828C00CB400F078FF0D
:100280000CBC1A60D2F828C0BCE8F00F8CF30988C7
:100290006FF0020E704700002C00002001F030F8D3
:1002A000E0E7000000F0EAFA01F02AF8DAE70000DF
:1002B0000948804709480047FEE7FEE7FEE7FEE7FA
:1002C000FEE7FEE7FEE7FEE7FEE7FEE70448054936
:1002D000054A064B704700006D034000C100400016
:1002E000E00C0020E0100020E00E0020E00E0020D6
:1002F000004870477C0C002010B50446AFF3008026
:100300002046BDE81040FFF726BF70477047704792
:1003100001491820ABBEFEE7260002007546FFF734
:10032000E7FFAE4605006946534620F007008546C4
:1003300018B020B5FFF7CAFFBDE820404FF0000617
:100340004FF000074FF000084FF0000B21F00701BD
:10035000AC46ACE8C009ACE8C009ACE8C009ACE800
:10036000C0098D4670477047000000004FF40070D0
:100370002549086025482649086026482449C4398B
:10038000086000BF22487C38006800F40030002874
:10039000F8D021481E49BC39086000BF1C487C3891
:1003A000006800F002000028F8D01948B43800684E
:1003B00020F00300401C1649B439086000BF1448FF
:1003C0007C38006800F008000028F8D001201049AF
:1003D000B439086000BF0E487C38006800F008009F
:1003E0000028F8D000200A49E43908600B48084981
:1003F000D43908600548401C054908604FF40040A6
:100400000749086070470000000A0E4000434D5045
:10041000E4040E400801370000860F20000C008025
:1004200054140E4010B5002A06DA22F00042D21D04
:1004300022F00703102203E0D21C22F003030C2257
:1004400013B19C188C4201D9012010BD0244014413
:100450008360C0E90021C91AD018884202D8106010
:100460000246F9E70020106010BD00000549097838
:10047000002905D000684FF6FF71DFF80CC000DFDF
:100480007047000025000020AD0E400004490978A7
:10049000002903D00068DFF80CC000DF70470000BF
:1004A00025000020D50D400010B50021014800F0C6
:1004B0007FF910BD5C18400008480068C0010BD5EA
:1004C00007480068C00707D0054880380068002842
:1004D00002DA04490120087070470000FCED00E0DA
:1004E000800E00E0480000204FF06042D36F002BE8
:1004F000FCD0036BD367D36F002BFCD0C07840EAED
:100500000120A2F87C0070474FF06041CA6F002ABA
:10051000FCD081F87C0070476FF087004349086089
:100520008720091D0860414910310860C043091D3A
:10053000086000203D4920310860401E091D086008
:1005400000203A4980310860401E091D08600020E3
:10055000364930310860401E091D086000203349CB
:10056000A0310860401E091D086000202F4940315D
:100570000860401E091D086000202C4950310860A9
:10058000401E091D08600020284964310860401E93
:10059000091F0860C0002549903108600720091D27
:1005A0000860802021497031086000201F49B03167
:1005B0000860401E091D086000201D4908600F20CA
:1005C00048600020886008610F20486140F20A20DE
:1005D000184908600F201649C1F80402FF20154988
:1005E0000831086040F20A201249203108600F20CB
:1005F000091D0860FF20091D086040F20A200D490E
:10060000403108600F20091D0860FF20091D0860A7
:1006100040F20A200749603108600F20091D086078
:10062000FF200349C1F8680270470000000E0E4029
:1006300000000240000202400EB5802200B109B164
:1006400010460AE001780129FAD101A900F020F84A
:10065000042801D0002000E01020DDE9011203B0E1
:1006600000BD70B50D46040003D012B920780128F2
:1006700001D0802070BD204600F0AAFA28B129469A
:10068000204600F02EF8002070BD812070BD0000D3
:1006900010B504468089002822D0608904EB8000D0
:1006A000006908606078022805D10021204600F02A
:1006B0007FFC00F06DFC04F10C0000BFD0E85F1F70
:1006C000491E8AB2C0E8512F0029F7D16089401C29
:1006D00080B26081E189884201D1002060810420DC
:1006E00010BD10B500F064FCBDE8104000F050BC37
:1006F00010B500F009F8FFF70FFFFFF7D5FE00F087
:1007000015F8002010BD0000EFF3058008B182202D
:100710007047EFF31480C00703D0DFF80CC000DF90
:10072000704700F073BF00000D16400088B0EFF373
:10073000058010B1822008B07047EFF3148010F0EC
:100740000301134806D001291BD0022911D0032927
:1007500019D113E008A981F309880078C0070BD0EC
:100760005FF0020080F31488BFF34F8FBFF36F8FE9
:1007700009E00078C00706D10320F3E70078C0073E
:1007800001D0FF20D7E7DFF80CC000DFD3E700007F
:10079000841840007D164000EFF305820AB1FFF790
:1007A0004BBFDFF808C000DF70470000E9164000CB
:1007B000EFF305820AB100207047EFF31482064B75
:1007C00002F001025B781A4303D0DFF810C000DFAB
:1007D000704700F0A7BF000024000020251740004C
:1007E000DFF80CC000DFDFF80CC000DFFEE7000020
:1007F00095174000B1174000DFF804C000DF7047D4
:10080000E9174000094C4FF0FF3529462068FFF7F3
:10081000C3FF02460846102AF7D1FFF7EDFF002874
:10082000F3D0024608469047EFE70000040000209E
:10083000012806D0022805D0032804D0042804D1BA
:1008400002E002E001E000E000BF00BF00BFFEE701
:1008500000BFFEE7074801684FF0E020416100213A
:100860008161072101610448016841F07F41016015
:10087000401770478018400020ED00E0704750E8B6
:10088000001F31B10B6840E80032002AF7D108465A
:100890007047BFF32F8FFAE710B568B161B10B3124
:1008A00021F00302016844680B1A1B1B934205D216
:1008B000084609680029F5D1002010BD210007D0A5
:1008C00021180368C1E90032016001F1080010BD80
:1008D0004260083010BD000070B50D46002812D0EF
:1008E0004FF6FF71084C884204D222680146104638
:1008F00000F08CFB20684570044800F0D3F8BDE898
:10090000704000F047BC70BD2C0000204C0C002053
:100910000F4810B50D4942680E480B6800689342B5
:1009200004D00A60CB88421E1A448A808A8880B22A
:1009300082420AD100200860054800F0B3F8014661
:10094000BDE81040024800F085BB10BD400000200B
:100950004C0C00203C00002070B5194DE8680028C0
:100960002CD0A88A401EA882002621E0A06838B1B9
:1009700061684160606810B1A16881606660A660CE
:100980000F482146183800F065FBA08AA8826078DD
:10099000042804D10B49E08A09880844A082012078
:1009A0006070E068E860E06808B10561E6602661B3
:1009B000A88A002802D1EC68002CD7D170BD0000B5
:1009C000640C00203C00002070B504000FD00D4DD9
:1009D000A17801262868827891420CD900F056FB54
:1009E000286846702046BDE8704000F0D3BB06483A
:1009F00000F058F8F7E766702146BDE870400248FD
:100A000000F028BB2C0000204C0C002010B5044640
:100A1000008B084320836278618B062A18D0052A50
:100A200019D1084217D001EA00026283884320836B
:100A3000204600F056FB01206070628B08212046A2
:100A400000F04BFB2146BDE81040034800F002BB1C
:100A500031EA0002EAD010BD4C0C0020814202D3E2
:100A600042688A4201D80120704750E8002F0A608E
:100A700040E80012002AF8D10020704768B161B147
:100A80000022083902E00246006830B18842FAD1FB
:100A90002AB10068106000207047012070470021D3
:100AA0004160F8E70146406842684A600B780022DE
:100AB000022B05D0012B03D0032B01D042607047DD
:100AC00043680BB19960426082607047810700D033
:100AD0000020704770B504460020154620700122A2
:100AE0006270A17084F824106060A060E0602061F2
:100AF0002062A082E0822083608384F82500E08C5D
:100B000018B90548FFF7BBFEE06229462046BDE85C
:100B1000704000F01DB80000C801002008B108298D
:100B200001D2012070470144091F002201600A60C0
:100B300042601046704700000348002101600349ED
:100B40000988C180704700004000002074184000F0
:100B500070B5C28C1C4D930802D12A88C2F38D0354
:100B6000C26A02EB8302540700D5121F4FF0807453
:100B700042E9021400242646B2F1400242F8246001
:100B8000641C0E2CFAD3C469146282620163296862
:100B9000C90014D5112B12D94FF0FF31103B11EBC6
:100BA00053014FF0CC3305D042F8043C42F8083DE5
:100BB000491EF9D1C16A121F8A4200D91360C06A66
:100BC0000249016070BD000070184000A52E5AE275
:100BD000C1898089081A7047012202700022427080
:100BE0008270426002814281103982818908C1810C
:100BF000704700002DE9F041044640680E464FF072
:100C0000000804F10C05E8B36078012701283ED004
:100C1000022813D003285CD10846FFF730FE0500F8
:100C200057D02046FFF73EFF0446294600F052FA0F
:100C30006770204600F055FA214621E02046FFF774
:100C400031FF0646002100F045FA2189F06904EBE6
:100C500081010861D5E85F0F401C81B2C5E8501FD3
:100C60000028F7D12089401C80B22081E189884288
:100C700001D1A4F808807770304600F032FA31468E
:100C8000174800E00CE0BDE8F04100F0E3B9204671
:100C9000FFF708FF04463246102100F01EFAC7E7AE
:100CA000A089E189884216D2208904EB8000066180
:100CB000D5E85F0F401C81B2C5E8501F0028F7D16E
:100CC0002089401C80B22081E189884201D1A4F8AA
:100CD0000880BDE8F081BDE8F0410320FFF7A8BD22
:100CE0004C0C002070B50446808915460026C0B320
:100CF000608904EB8000006908606089401C80B254
:100D00006081E189884200D16681606810B16078B5
:100D100002280BD014F10C04D4E85F0F401E81B2FE
:100D2000C4E8501F0028F7D1002070BD2046FFF70F
:100D3000B9FE0546002100F0CDF92189E86904EBF0
:100D4000810108612089401C80B22081E1898842AC
:100D500000D12681284600F0C4F92846FFF734FE6A
:100D6000E2E7FFE73DB10B48626801682AB120461F
:100D700000F070F908E0012070BD616001684E600C
:100D8000006884600120607008212846FFF7A4FDF8
:100D9000F1E700002C000020411C13D00B4A4FF655
:100DA000FE7190420CD800EB4002C2EBC012084822
:100DB000036803EBC202521EB2FBF3F0884200D973
:100DC000084670474FF6FF707047000000093D006D
:100DD000901840002DE9F0410446408820B1314D83
:100DE000A1682A68914202D0FF20BDE8F081401E30
:100DF0000004000C608053D12968086AA04209D120
:100E0000E068086208E0C268A24202D1E268C260FB
:100E100002E010460028F6D191F824000A6A06E0A4
:100E200053681BB19B78834200D91846D268002AC8
:100E3000F6D18870DFF870806168012611B3204612
:100E4000FFF730FE0746002100F044F9384600F075
:100E500048F96680A760386AE0603C622968D8F883
:100E600004008A788078824201D3384616E00E4822
:100E700000F0F0F839460C4800F0ECF828684670AD
:100E80007E700AE0D8F804108A782968824207D96F
:100E9000054800F0DFF8286846700020FFF794FD51
:100EA0000020A2E72C0000204C0C002070B5184D4B
:100EB0000E4604464188286839B1A168814209D1AB
:100EC0006088401C6080002070BDA060016AE16005
:100ED0000462F5E776B18A788078824203D288701E
:100EE000A06800F0DDF8606830B12046296800F0A5
:100EF000B1F808E0012070BD286860602968002012
:100F000048602868846009213046FFF7E5FCF1E776
:100F10002C00002070B51B48012102685170006848
:100F200000F0B4F8184D6C7818E000BF05EBC40170
:100F300048680278EAB1012A20D000F0FFF8E8788A
:100F4000641C844200D100240F48801CD0E84F1F4D
:100F5000491EC9B2C0E8421F002AF7D1A87800286C
:100F6000E4D16C700948FFF79DFDBDE8704000F0CA
:100F700011B9098989B2FFF749FDE0E78968FFF7F0
:100F800039FEDCE72C000020380800204C0C002043
:100F90000548017811B101214170704703494FF0B4
:100FA00080500860704700003400002004ED00E02D
:100FB000F0B4154DAB1CEE784FEA0507D3E84F2F80
:100FC000B24202D1BFF32F8F11E0521CD4B2C3E85A
:100FD000424F002AF2D100BFD7E84F2F541CB44231
:100FE00000D10024E4B2C7E8434F002BF4D1EB78E2
:100FF000934205D905EBC202C2E90101F0BC70477A
:10100000F0BC0220FFF714BC38080020104A10B5CD
:10101000D368ABB113469B8A03E08CB12246A48A05
:101020002344D4688B42F8D3C460D0600261C468A2
:1010300004B12061591A8182908A401A908210BDB1
:101040000024C460D060C91A02619182848210BDFC
:10105000640C002030B502780023022A03D0012A54
:1010600001D0032A00D101238C7800E010464268A9
:1010700012B19578A542F9D24A6041601BB102B124
:101080009160886030BD0020FBE7000003494A689A
:101090004260002282604860704700004C0C0020D3
:1010A00010B5836804462BB9607801280ED1084B2F
:1010B00003E09B6818780028FBD0204600F026F853
:1010C0002146BDE810401846FFF7C4BF10BD000020
:1010D0004C0C0020806A01627047806AC0E90812E7
:1010E000704710B5016900290ED0C268CA60C36894
:1010F00000223BB18B8A848A23448B82C3681961A6
:10110000C26000E08A82026110BD0000816839B1CE
:1011100042684A604168002901D080688860704751
:10112000054906E04A68824202D14068486070473B
:1011300011460029F6D170474C0C002010B54168CB
:1011400081B1FFF7AFFC0446FFF7CBFF01206070D1
:1011500001462046FFF7BEFF2146BDE81040034888
:10116000FFF778BF4188491C418010BD4C0C00201E
:1011700006480068D0E90A10814203D30068044998
:10118000884202D00120FFF753BB70472C0000209B
:10119000A52E5AE20749022248604270064A127898
:1011A000002A05D006C98A4202D0C078FFF7ACB940
:1011B000704700002C0000204800002070B5FFF7A9
:1011C0007BF900200446204A204902E042F82040F2
:1011D000401C0B889842F9D31D48342201881D48D1
:1011E000FFF720F91C48008880B240F000421B48FD
:1011F00001681B48FFF716F91A48082201881A48A7
:101200000068FFF70FF9194DFF20194AE870EC84C8
:1012100000212846FFF75EFC164804210170446057
:1012200015480170C4600461848214481549056042
:10123000022068701248047044700978C170BDE8DB
:101240007040FFF779BC0000BC0800206C1840001B
:101250009818400050000020701840009C18400072
:10126000C8010020C01840000C000020180C00200D
:10127000510840004C0C0020640C00202C00002081
:1012800038080020A41840001B4810B5016841F43C
:101290007F01016000684FF07F4101EA002016499C
:1012A000C0431439B0FA80F00968C0F10800C1F3F6
:1012B0000221814200DB481C0F49091F0B686FF0B7
:1012C0008072824063F317020A60FFF7C3FA0B498A
:1012D000002808600EDB00F1E021FF2281F80024E5
:1012E00000F01F02012191404011800000F1E02038
:1012F000C0F8001110BD000020ED00E03800002013
:101300000C4810B50268012151700068FFF7BEFE5D
:10131000FFF7FEFA08480168491C0160FFF71CFB53
:1013200000F06EFA0548FFF7BDFBBDE81040FFF77F
:1013300031BF00002C0000203C0000204C0C00209D
:10134000002805D0810702D10178002900D00020B3
:101350007047000030B50B4C0023626805E09568CB
:101360008D4204D813461268491B002AF7D1026047
:10137000816012B19568691A91600BB1186030BD37
:10138000606030BD240000202DE9F0411E46174664
:1013900080460C4611F0FF0F00D14C1C1648FFF799
:1013A0006EFA050026D0200AEF62E884E1B24246D8
:1013B0002846EE61FFF78EFB01241048104905E036
:1013C00000EB840252F8042C22B1641C0A88944277
:1013D000F6D9002400EB840040F8045C0948EC7066
:1013E000007818B101212846FFF77EF82846FFF75C
:1013F000EBFA2046BDE8F08150000020BC08002038
:101400006C184000480000202DE9F05F564DDFF8D1
:1014100050A1DFF8509129684FF00008012618B15B
:10142000CA78AB46824241D1474681F80180FEF737
:10143000AAFE29688862FFF79BFE2868B046046A06
:101440001AE06068B8B12046FFF72CFB0646002181
:10145000FFF740FE3046FFF744FE86F80180314634
:101460004248FFF7F7FDA4F80280A660316AE16008
:101470003462E46800E0E468002CE2D12868C278B5
:1014800009EB820141F8047CC16A3948FFF7E6FAAA
:101490002868C7629AF8001011B10021FFF724F8FC
:1014A00034482968FFF7DAFA2F6053E03249098897
:1014B00088420DD809EB800757F8045C45B12846EF
:1014C000FFF724FE2846FFF70CFEB1462C6A1DE00C
:1014D000FF20BDE8F09F6068B8B12046FFF7E2FA50
:1014E00006460021FFF7F6FD3046FFF7FAFD86F8C5
:1014F000019031461D48FFF7ADFDA4F80290A660AB
:10150000316AE1603462E46800E0E468002CE2D112
:1015100047F8048C44461648E96AFFF79FFAEC62E4
:101520009AF8000018B100212846FEF7DDFF294691
:101530001048FFF793FA0D48DBF8001040688B78ED
:1015400082789A4209D981F801900848DBF80010A6
:10155000FFF780FD0020FFF737FA0020B9E7000011
:1015600048000020BC0800202C0000204C0C00206B
:10157000C8010020500000206C18400070B51A4DC2
:1015800080B11A4A128890421FD8194A02EB800093
:1015900050F8044CCCB1A17084F824102868A04203
:1015A00005D014E028688170286880F8241011485C
:1015B00040688078884215D90E482968FFF74AFDAF
:1015C00029680120487000200AE0FF2070BD2046F5
:1015D000FFF766FD6078012804D10648FFF762FA3C
:1015E000FFF7F2F9002070BD2C0000206C184000BD
:1015F000BC0800204C0C002002480068002800D0E5
:10160000C07870472C00002000BFFEE710B5134CD7
:10161000207860B91248400705D112480168104887
:10162000FFF77CFA08B1852010BDFFF7C7FD0E4912
:10163000FF2009688870207858B900210B4800F015
:1016400041F80B49086000210A4800F06BF80A498C
:101650000860012020700020607010BD2400002070
:1016600088060020A01840002C000020B818400078
:1016700004000020A81840000000002070B50F4DA5
:10168000687808B1002070BD0D4C206890F82410D7
:101690000020FFF773FF2068C178FF2903D1816A1A
:1016A000203181F30988616811B9606000202060F1
:1016B000FFF7EAFD01206870E4E700002400002045
:1016C0002C00002010B5040005D0216819B1606815
:1016D00008B102780AB1002010BD8900103189B22A
:1016E000FFF77AFA606810BD3EB504000D464FF072
:1016F000800012D0217801290FD12846FFF74CFB3A
:1017000082B2204601A9FFF7EDFA012801D010208E
:1017100003E00DB1402000E00020DDE9011203B03C
:1017200030BD000070B50E4604002BD0206848B3D1
:10173000B4F9040010F1030F24DB032822DCE16874
:1017400029B11148FFF7A8F805001BD000E00025DB
:10175000B4F90400E168001D40EA012133462A463D
:101760002068FFF711FE40B1084901EB80000849ED
:1017700050F8040C826A516370BD1DB129460248BD
:10178000FFF77CF9002070BD88060020BC0800200F
:10179000E107400010B5FFF72FFF002804D00349F0
:1017A00001EB800050F8040C10BD0000BC080020C4
:1017B00010B5FFF7C5FD18B1C18C19B1C46A02E0BC
:1017C000802010BD0024C078FFF71EFEFF2806D041
:1017D0001CB121460348FFF751F9002010BD8120BC
:1017E00010BD00008806002010B5FFF76FF920B18A
:1017F00041690A680169104610BD0020014610BD0C
:101800002DE9F041134E7468002C1CD0A068124FD3
:10181000401E4FF00108A06012E025462468746065
:10182000002229463868FEF71CFF10B10420FEF79D
:10183000FFFF6879012808D085F80480002C02D0C9
:10184000A0680028E9D0BDE8F0812846E968FFF7E4
:1018500081FDF3E724000020040000200916400069
:101860000000000001000000000000000700000070
:10187000C800020105000100001BB7000C000000B9
:10188000DF2E000001000000020001004E000400F5
:10189000E80300000000000078010000C004000020
:1018A000B001000010000000050840000200000028
:1018B00001000000C800000004000000D80800205B
:1018C00000000000E4184000000000204C00000070
:1018D000FC004000301940004C0000209410000033
:1018E000180140000000000000000000000000009F
:1018F0000000000000000000F106400000000000B1
:1019000001000000C800000000000000000000000E
:1019100000000000000000000000000000000000C7
:1019200000000000000000000000000000000000B7
:04000005004002B104
:00000001FF
