:0600000000F089EF00F0A2
:10000800FFFFFACF02F0FBCF03F0E9CF04F0EACF0D
:1000180005F0E1CF06F0E2CF07F0D9CF08F0DACF4C
:1000280009F0F3CF0AF0F4CF0BF0F6CF0CF0F7CFCE
:100038000DF0F8CF0EF0F5CF0FF0016EF70E116E40
:100048000150016EEF0E106E0150F2A001D001D0E8
:100058003ED081CF12F012500F0B0F0AD8B401D046
:1000680001D033D012B001D001D007D012BE01D0D8
:1000780001D003D011C08CFF28D012B201D001D01A
:1000880007D012BC01D001D003D011C08CFF1DD005
:1000980012B401D001D007D012BA01D001D003D0D8
:1000A80011C08CFF12D012B601D001D007D012B8FF
:1000B80001D001D003D011C08CFF07D010C08CFF35
:1000C80004D003D002D001D000D0F29000D00FC0ED
:1000D800F5FF0EC0F8FF0DC0F7FF0CC0F6FF0BC010
:1000E800F4FF0AC0F3FF09C0DAFF08C0D9FF07C050
:1000F800E2FF06C0E1FF05C0EAFF04C0E9FF03C054
:10010800FBFF02C0FAFF1100FFFF9CEF00F0FFFFAA
:10011800FFFF000E956E9368D09EC80EF26E010E1A
:10012800F116FFFFFED7FFFFFFFFFFFFFFFFFFFFF7
:0601380000018CEF00F055
:020000040020DA
:08000000FFFFFFFFFFFFFFFF00
:020000040030CA
:04000000FF220F0EBE
:0800060085FF0FC00FE00F4061
:00000001FF
