:060000000A128A11122809
:10000800FE00030E83120313CE000408CF000A0873
:10001800D0007F08D1000A128A15522C0A128A11C0
:100028001528E201D701D801D901DA01DB01DC0189
:10003800DD01DE01DF01E001E1018313DF30FD00B6
:100048001730FE007630FF00A03084000A168A11AF
:1000580042260A128A113E30FD000730FE00E230C7
:10006800FF00203084000A168A11422683010A16EE
:100078008A11B52FFD007D08840083138001840A4E
:100088008001840A8001840A8001FE3083120313F0
:100098008800081A95280914C330BF00CD30BE0067
:1000A800BE0B5428BF0B5428C33083120313BF0060
:1000B800CD30BE00BE0B5E28BF0B5E280030F300BB
:1000C8000030F2000030F1000A30F0007D088400B2
:1000D80083130008F400840A0008F500840A000865
:1000E800F600840A0008F700040883120313BE0010
:1000F8000A168A11F8260A128A11831203133E0877
:1001080084007308831380008403720880008403CA
:10011800710880008403700880007D088400013025
:100128002429881ADD280914C330BF00CD30BE0049
:10013800BE0B9C28BF0B9C28C33083120313BF003F
:10014800CD30BE00BE0BA628BF0BA6280030F3009A
:100158000030F2000030F1000A30F0007D08840021
:1001680083130008F400840A0008F500840A0008D4
:10017800F600840A0008F700040883120313BE007F
:100188000A168A11F8260A128A11831203133E08E6
:10019800840073088313800084037208800084033A
:1001A800710880008403700880007D088400043092
:1001B8002429081B38290914C330BF00CD30BE00DC
:1001C800BE0BE428BF0BE428C33083120313BF001F
:1001D800CD30BE00BE0BEE28BF0BEE280030F3007A
:1001E8000030F2000030F1000A30F0007D08840091
:1001F80083130008F400840A0008F500840A000844
:10020800F600840A0008F700040883120313BE00EE
:100218000A168A11F8260A128A11831203133E0855
:1002280084007308831380008403720880008403A9
:10023800710880008403700880007D0884000730FE
:100248008007840A00300318013E031D8007840AD2
:1002580000300318013E031D8007840A003003188C
:10026800013E800709105129881B51290914C33000
:10027800BF00CD30BE00BE0B3F29BF0B3F29C330A6
:1002880083120313BF00CD30BE00BE0B4929BF0B3C
:1002980049298312031309100800FD308800081A41
:1002A8009B290914C330BF00CD30BE00BE0B5A29AC
:1002B800BF0B5A29C33083120313BF00CD30BE00D1
:1002C800BE0B6429BF0B64290030F3000030F20034
:1002D8000030F1000A30F0007D0884008313000824
:1002E800F400840A0008F500840A0008F600840A6D
:1002F8000008F700040883120313BE000A168A11C7
:10030800F8260A128A11831203133E088400730820
:1003180083138000840372088000840371088000BE
:100328008403700880007D08840002302A2A881A15
:10033800E3290914C330BF00CD30BE00BE0BA2298B
:10034800BF0BA229C33083120313BF00CD30BE00F8
:10035800BE0BAC29BF0BAC290030F3000030F20013
:100368000030F1000A30F0007D0884008313000893
:10037800F400840A0008F500840A0008F600840ADC
:100388000008F700040883120313BE000A168A1136
:10039800F8260A128A11831203133E088400730890
:1003A800831380008403720880008403710880002E
:1003B8008403700880007D08840005302A2A081B01
:1003C8003D2A0914C330BF00CD30BE00BE0BEA2958
:1003D800BF0BEA29C33083120313BF00CD30BE0020
:1003E800BE0BF429BF0BF4290030F3000030F200F3
:1003F8000030F1000A30F0007D0884008313000803
:10040800F400840A0008F500840A0008F600840A4B
:100418000008F700040883120313BE000A168A11A5
:10042800F8260A128A11831203133E0884007308FF
:10043800831380008403720880008403710880009D
:100448008403700880007D08840008308007840ACF
:1004580000300318013E031D8007840A003003188A
:10046800013E031D8007840A00300318013E8007FF
:10047800812A881B822A0914C330BF00CD30BE00F0
:10048800BE0B442ABF0B442AC33083120313BF0098
:10049800CD30BE00BE0B4E2ABF0B4E2A0030F300F3
:1004A8000030F2000030F1000A30F0007D088400CE
:1004B80083130008F400840A0008F500840A000881
:1004C800F600840A0008F700040883120313BE002C
:1004D8000A168A11F8260A128A11831203133E0893
:1004E80084007308831380008403720880008403E7
:1004F800710880008403700880000910FB308800B0
:10050800081ACC2A0914C330BF00CD30BE00BE0B78
:100518008B2ABF0B8B2AC33083120313BF00CD3045
:10052800BE00BE0B952ABF0B952A0030F3000030A1
:10053800F2000030F1000A30F0007D0884008313D7
:100548000008F400840A0008F500840A0008F60090
:10055800840A0008F700040883120313BE000A1671
:100568008A11F8260A128A11831203133E0884009E
:100578007308831380008403720880008403710861
:1005880080008403700880007D08840003305B2BA2
:10059800881A142B0914C330BF00CD30BE00BE0B1F
:1005A800D32ABF0BD32AC33083120313BF00CD3025
:1005B800BE00BE0BDD2ABF0BDD2A0030F300003081
:1005C800F2000030F1000A30F0007D088400831347
:1005D8000008F400840A0008F500840A0008F60000
:1005E800840A0008F700040883120313BE000A16E1
:1005F8008A11F8260A128A11831203133E0884000E
:1006080073088313800084037208800084037108D0
:1006180080008403700880007D08840006305B2B0E
:10062800081B6F2B0914C330BF00CD30BE00BE0BB2
:100638001B2BBF0B1B2BC33083120313BF00CD3002
:10064800BE00BE0B252BBF0B252B0030F30000305E
:10065800F2000030F1000A30F0007D0884008313B6
:100668000008F400840A0008F500840A0008F6006F
:10067800840A0008F700040883120313BE000A1650
:100688008A11F8260A128A11831203133E0884007D
:100698007308831380008403720880008403710840
:1006A80080008403700880007D088400093080077A
:1006B800840A00300318013E031D8007840A0030B5
:1006C8000318013E031D8007840A00300318013E09
:1006D80080070910882B881B882B0914C330BF009A
:1006E800CD30BE00BE0B762BBF0B762BC3308312EA
:1006F8000313BF00CD30BE00BE0B802BBF0B802B79
:100708008312031309100800F7308800081AA72B72
:100718000914C330BF00CD30BE00BE0B912BBF0BF8
:10072800912BC33083120313BF00CD30BE00BE0B24
:100738009B2BBF0B9B2B8312031309107D080A16F2
:100748008A113C260800081B032C0914C330BF007B
:10075800CD30BE00BE0BAE2BBF0BAE2BC330831209
:100768000313BF00CD30BE00BE0BB82BBF0BB82B98
:1007780083120313091005110030BF00D730BE00E3
:10078800BE0BC42BBF0BC42B003083120313BF0056
:10079800D730BE00BE0BCE2BBF0BCE2B0030831242
:1007A8000313BF00D730BE00BE0BD82BBF0BD82B0E
:1007B800003083120313BF00D730BE00BE0BE22BFC
:1007C800BF0BE22B003083120313BF00D730BE00EB
:1007D800BE0BEC2BBF0BEC2B8312031305150A126F
:1007E8008A1539200A128A110038031DFF2B83123B
:1007F8000313851208008312031385160800881B4B
:1008080049280914C330BF00CD30BE00BE0B0A2CE6
:10081800BF0B0A2CC33083120313BF00CD30BE00B8
:10082800BE0B142CBF0B142C8312031309107D0864
:100838000A128A150020080083120313CB004B0804
:10084800840083138001840A8001840A8001840A59
:100858008001FE30831203138800081A792C0914CA
:10086800C330CA00CD30C900C90B382CCA0B382C8C
:10087800C33083120313CA00CD30C900C90B422C00
:10088800CA0B422C0030F3000030F2000030F100B7
:100898000A30F000831203134B0884008313000806
:1008A800F400840A0008F500840A0008F600840AA7
:1008B8000008F7000408C9000A168A11F8260A1267
:1008C8008A11831203134908840073088313800074
:1008D8008403720880008403710880008403700810
:1008E80080004B0884000130082D881AC12C091497
:1008F800C330CA00CD30C900C90B802CCA0B802C6C
:10090800C33083120313CA00CD30C900C90B8A2C27
:10091800CA0B8A2C0030F3000030F2000030F100DE
:100928000A30F000831203134B0884008313000875
:10093800F400840A0008F500840A0008F600840A16
:100948000008F7000408C9000A168A11F8260A12D6
:100958008A118312031349088400730883138000E3
:10096800840372088000840371088000840370087F
:1009780080004B0884000430082D081B1C2D091426
:10098800C330CA00CD30C900C90BC82CCA0BC82C4B
:10099800C33083120313CA00CD30C900C90BD22C4F
:1009A800CA0BD22C0030F3000030F2000030F10006
:1009B8000A30F000831203134B08840083130008E5
:1009C800F400840A0008F500840A0008F600840A86
:1009D8000008F7000408C9000A168A11F8260A1246
:1009E8008A11831203134908840073088313800053
:1009F80084037208800084037108800084037008EF
:100A080080004B08840007308007840A00300318F0
:100A1800013E031D8007840A00300318013E031DB0
:100A28008007840A00300318013E80070910352D1D
:100A3800881B352D0914C330CA00CD30C900C90B35
:100A4800232DCA0B232DC33083120313CA00CD30C4
:100A5800C900C90B2D2DCA0B2D2D831203130910A4
:100A68000800FD308800081A7F2D0914C330CA0019
:100A7800CD30C900C90B3E2DCA0B3E2DC3308312A1
:100A88000313CA00CD30C900C90B482DCA0B482D25
:100A98000030F3000030F2000030F1000A30F000BE
:100AA800831203134B08840083130008F400840A9C
:100AB8000008F500840A0008F600840A0008F70018
:100AC8000408C9000A168A11F8260A128A11831224
:100AD8000313490884007308831380008403720891
:100AE80080008403710880008403700880004B082C
:100AF800840002300E2E881AC72D0914C330CA008C
:100B0800CD30C900C90B862DCA0B862DC330831280
:100B18000313CA00CD30C900C90B902DCA0B902D04
:100B28000030F3000030F2000030F1000A30F0002D
:100B3800831203134B08840083130008F400840A0B
:100B48000008F500840A0008F600840A0008F70087
:100B58000408C9000A168A11F8260A128A11831293
:100B68000313490884007308831380008403720800
:100B780080008403710880008403700880004B089B
:100B8800840005300E2E081B212E0914C330CA001C
:100B9800CD30C900C90BCE2DCA0BCE2DC330831260
:100BA8000313CA00CD30C900C90BD82DCA0BD82DE4
:100BB8000030F3000030F2000030F1000A30F0009D
:100BC800831203134B08840083130008F400840A7B
:100BD8000008F500840A0008F600840A0008F700F7
:100BE8000408C9000A168A11F8260A128A11831203
:100BF8000313490884007308831380008403720870
:100C080080008403710880008403700880004B080A
:100C1800840008308007840A00300318013E031D51
:100C28008007840A00300318013E031D8007840AE8
:100C380000300318013E8007652E881B662E0914B4
:100C4800C330CA00CD30C900C90B282ECA0B282EC4
:100C5800C33083120313CA00CD30C900C90B322E2A
:100C6800CA0B322E0030F3000030F2000030F100E1
:100C78000A30F000831203134B0884008313000822
:100C8800F400840A0008F500840A0008F600840AC3
:100C98000008F7000408C9000A168A11F8260A1283
:100CA8008A11831203134908840073088313800090
:100CB800840372088000840371088000840370082C
:100CC80080000910FB308800081AB02E0914C330C0
:100CD800CA00CD30C900C90B6F2ECA0B6F2EC330A6
:100CE80083120313CA00CD30C900C90B792ECA0B71
:100CF800792E0030F3000030F2000030F1000A30A5
:100D0800F000831203134B08840083130008F400D7
:100D1800840A0008F500840A0008F600840A00081E
:100D2800F7000408C9000A168A11F8260A128A115F
:100D38008312031349088400730883138000840313
:100D480072088000840371088000840370088000A2
:100D58004B08840003303F2F881AF82E0914C3303B
:100D6800CA00CD30C900C90BB72ECA0BB72EC33085
:100D780083120313CA00CD30C900C90BC12ECA0B98
:100D8800C12E0030F3000030F2000030F1000A30CC
:100D9800F000831203134B08840083130008F40047
:100DA800840A0008F500840A0008F600840A00088E
:100DB800F7000408C9000A168A11F8260A128A11CF
:100DC8008312031349088400730883138000840383
:100DD8007208800084037108800084037008800012
:100DE8004B08840006303F2F081B532F0914C330CB
:100DF800CA00CD30C900C90BFF2ECA0BFF2EC33065
:100E080083120313CA00CD30C900C90B092FCA0BBE
:100E1800092F0030F3000030F2000030F1000A30F2
:100E2800F000831203134B08840083130008F400B6
:100E3800840A0008F500840A0008F600840A0008FD
:100E4800F7000408C9000A168A11F8260A128A113E
:100E580083120313490884007308831380008403F2
:100E68007208800084037108800084037008800081
:100E78004B08840009308007840A00300318013EBB
:100E8800031D8007840A00300318013E031D8007F4
:100E9800840A00300318013E800709106C2F881B54
:100EA8006C2F0914C330CA00CD30C900C90B5A2FA2
:100EB800CA0B5A2FC33083120313CA00CD30C9009E
:100EC800C90B642FCA0B642F83120313091008007F
:100ED800F7308800081A8B2F0914C330CA00CD30A8
:100EE800C900C90B752FCA0B752FC33083120313A2
:100EF800CA00CD30C900C90B7F2FCA0B7F2F8312C0
:100F0800031309104B080A168A113C260800881A90
:100F1800A82F0914C330CA00CD30C900C90B922FBD
:100F2800CA0B922FC33083120313CA00CD30C900F5
:100F3800C90B9C2FCA0B9C2F8312031309104B0853
:100F48000A128A158D210800081BC52F0914C33001
:100F5800CA00CD30C900C90BAF2FCA0BAF2FC330A1
:100F680083120313CA00CD30C900C90BB92FCA0BAD
:100F7800B92F8312031309104B080A168A11372751
:100F88000800881B2D2C0914C330CA00CD30C900B5
:100F9800C90BCC2FCA0BCC2FC33083120313CA0042
:100FA800CD30C900C90BD62FCA0BD62F8312031315
:100FB80009104B080A128A150020080045346E34BF
:100FC8007434653472342034503461347334733477
:100FD80077346F34723464343A34003448346134CA
:100FE800703470347934203444347234693476344B
:100FF8006534203421340034003008000A168A1180
:1010080090260A128A15013A031D1A281A30F2008E
:10101800F20B0C2800000130F2007208831203134F
:10102800DB0719305B020318080002288312031338
:101038008711871007110F30F2007208870587158E
:10104800252826288312031387112A282B28831280
:101058000313871587173028312883120313871144
:101068000D30F200F20B362808004130F300EE3064
:10107800F200F20B3D28F30B3D2800008312031306
:1010880087113030F2007208F400871007110F3012
:10109800F2007208870587157408F2007208870441
:1010A800552856288312031387110D30F200F20BCE
:1010B8005B282030F2007208F4000F30F20072084A
:1010C80083120313870587157408F20072088704D2
:1010D8006D286E28831203138711F40163197414A1
:1010E8000310F40D62197414F40EF40DF40DC030ED
:1010F800F4050F30F2007208870587157408F200AE
:1011080072088704872888288312031387110D30F3
:10111800F200F20B8D282030F2007208F4000F3034
:10112800F200720883120313870587157408F2000A
:10113800720887049F28A028831203138711F401DB
:10114800631974140310F40D62197414F40EF40D79
:10115800F40DC030F4050F30F200720887058715CA
:101168007408F20072088704B928BA288312031396
:1011780087110D30F200F20BBF2883120313DB0135
:101188000A168A1190260A128A15013A031DDD28CB
:101198001A30F200F20BCE2800000130F20072087B
:1011A80083120313DB0719305B02031CC4280130C8
:1011B80008000F30F20072088312031387058715A1
:1011C800E528E6288312031387110130F20072081C
:1011D800F4000310F40D631874140310F40DE218EE
:1011E80074140310F40D62187414F40EF030F4053E
:1011F80087157408F20072088704022903298312EC
:10120800031387110D30F200F20B08298312031320
:10121800DB010A168A1190260A128A15013A031D63
:1012280026291A30F200F20B172900000130F200CB
:10123800720883120313DB0719305B02031C0D29A4
:10124800013008000F30F20072088312031387057B
:1012580087152E292F29831203138711332934293F
:10126800831203138715071639293A2983120313A2
:1012780087110330F3009730F200F20B4129F30B8A
:101288004129462983120313DB010A168A11902685
:101298000A128A15013A031D62291A30F200F20B6C
:1012A800532900000130F200720883120313DB0790
:1012B80019305B02031C4929013008000F30F20085
:1012C800720883120313870587156A296B2983120D
:1012D800031387110130F2007208F4000310F40DB3
:1012E800E31874140310F40DE2197414F40EF030BA
:1012F800F40587157408F200720887048329842985
:101308008312031387110D30F200F20B8929003084
:10131800080083120313C4000E30F2000030F300FB
:10132800F401D0300A128A15E8220A128A15003808
:10133800031DA229831203138516A52983120313FB
:10134800851244080A128A113E200A128A1583124D
:1013580003134408840083130008C000840A0008AB
:10136800C100840A0008C200840A0008C3005A08A1
:101378004306031DC92959084206031DC9295808EF
:101388004106031DC92957084006031DE62A0E30E9
:10139800F2000030F300F401C1300A128A15E82285
:1013A8000A128A150038031DDD29831203138516D6
:1013B800E02983120313851244080A128A113E2079
:1013C8000A128A1583120313440884008313000841
:1013D800C500840A0008C600840A0008C700840AF9
:1013E8000008C800DC014508C0004008DC004408CB
:1013F80084000008C500840A0008C600840A0008A2
:10140800C700840A0008C80008300310C80CC70CBD
:10141800C60CC50CFF3E031D092ADD014508C000A6
:101428004008DD00440884000008C500840A00085C
:10143800C600840A0008C700840A0008C8001030E3
:101448000310C80CC70CC60CC50CFF3E031D242A8C
:10145800DE014508C0004008DE0444088400000896
:10146800C500840A0008C600840A0008C700840A68
:101478000008C80018300310C80CC70CC60CC50CEF
:10148800FF3E031D3F2ADF014508C0004008DF0476
:101498005C08C0004008F00000300A168A116A266D
:1014A8000A128A15831203135D08C0004008F00071
:1014B80001300A168A116A260A128A158312031342
:1014C8005E08C0004008F00002300A168A116A2639
:1014D8000A128A15831203135F08C0004008F0003F
:1014E80003300A168A116A260A128A158316031708
:1014F8008C187A2A1030F2000030F300F401A03082
:101508000A128A15E8220A128A150038031D902A41
:10151800831203138516932A83120313851200304E
:10152800C100D730C000C00B972AC10B972A0030E2
:1015380083120313C100D730C000C00BA12AC10B0E
:10154800A12A003083120313C100D730C000C00B9A
:10155800AB2AC10BAB2A003083120313C100D7306A
:10156800C000C00BB52AC10BB52A00308312031383
:10157800C100D730C000C00BBF2AC10BBF2A003042
:1015880083120313C100D730C000C00BC92AC10B96
:10159800C92A003083120313C100D730C000C00B22
:1015A800D32AC10BD32A003083120313C100D730CA
:1015B800C000C00BDD2AC10BDD2A8312031362169B
:1015C8000030080000300800F70083120313DB0125
:1015D8000A168A1190260A128A15013A031D052B4C
:1015E8001A30F500F50BF62A00000130F5007508F1
:1015F80083120313DB0719305B02031CEC2A01304A
:10160800080083120313871007110F30F5007508BF
:10161800870587150F2B102B831203138711142BA3
:10162800152B83120313871507161A2B1B2B8312EE
:10163800031387110330F6009730F500F50B222BC2
:10164800F60B222B272B0A168A1190260A128A15C6
:10165800013A031D402B1A30F500F50B312B000021
:101668000130F500750883120313DB0719305B029C
:10167800031C272B013008000F30F5007508831272
:10168800031387058715482B492B831203138711EA
:101698004D2B4E2B831203138715C030F5007508A8
:1016A8008704562B572B8312031387110D30F5002F
:1016B800F50B5C2B7408013A0319742BA02B1A3014
:1016C800F500F50B652B00000130F5007508831255
:1016D8000313DB0719305B02031C742B013008006D
:1016E8000A168A1190260A128A15013A0319632BE1
:1016F80083120313871007110F30F500750887054B
:101708008715C030F500750887048A2B8B2B831248
:10171800031387118F2B902B0F30F5007508831258
:10172800031387058715982B992B831203138711A9
:101738000D30F500F50B9E2BF4080319B52BDF2BA4
:101748001A30F500F50BA62B00000130F5007508DE
:1017580083120313DB0719305B02031CB52B01301E
:1017680008000A168A1190260A128A15013A0319E6
:10177800A42B831203138711871007110F30F5006C
:101788007508870587158717C92BCA2B831203137A
:101798008711CE2BCF2B0F30F5007508831203135A
:1017A80087058715D72BD82B8312031387110D3084
:1017B800F500F50BDD2BF801F90173087902031D1B
:1017C800E72B7208780203184D2C83120313DB01F0
:1017D8000A168A1190260A128A15013A031D052C49
:1017E8001A30F500F50BF62B00000130F5007508EE
:1017F80083120313DB0719305B02031CEC2B013047
:10180800080078087707F500750884008313000836
:10181800F6007608FA00F030F5007508FA0583122C
:101828000313871407110F30F5007508870587150E
:101838007A08F50075088704212C83120313871191
:1018480078087707F5007508840083130008F60008
:101858007608FA00FA0EF030FA05F030F50075084F
:10186800FA050F30F5007508870587157A08F50021
:10187800750887043F2C8312031387115330F50032
:10188800F50B442C0130F8070318F90A0030F90762
:10189800E12B831203130514003008000B1C022EE1
:1018A8000608CC004C08D200061AE32D07140030B5
:1018B8000A168A114F260A128A1583120313CC00BE
:1018C8004C08DC0001300A168A114F260A128A15C4
:1018D80083120313CC004C08DD0002300A168A116B
:1018E8004F260A128A1583120313CC004C08DE0017
:1018F80003300A168A114F260A128A158312031317
:10190800CC004C08DF000030DA000030D90000308D
:10191800D8000030D7005F08D7040830CC00031087
:10192800D70DD80DD90DDA0DCC0B932C5E08D70442
:101938000830CC000310D70DD80DD90DDA0DCC0B1B
:101948009E2C5D08D7040830CC000310D70DD80DA5
:10195800D90DDA0DCC0BA92C5C08D704342D0F3027
:10196800F2000030F300F401B1300A128A15E822BF
:101978000A128A150038031DC52C83120313851219
:10198800C82C831203138516F730CD00BF30CC0066
:10199800CC0BCC2CCD0BCC2CD12CF73083120313D1
:1019A800CD00BF30CC00CC0BD72CCD0BD72CDC2CEA
:1019B800F73083120313CD00BF30CC00CC0BE22CE0
:1019C800CD0BE22CE72CF73083120313CD00BF3088
:1019D800CC00CC0BED2CCD0BED2CF22CF730831278
:1019E8000313CD00BF30CC00CC0BF82CCD0BF82C5A
:1019F800FD2CF73083120313CD00BF30CC00CC0B85
:101A0800032DCD0B032D082DF73083120313CD00C2
:101A1800BF30CC00CC0B0E2DCD0B0E2D132DF73077
:101A280083120313CD00BF30CC00CC0B192DCD0B86
:101A3800192D1E2DF73083120313CD00BF30CC00B3
:101A4800CC0B242DCD0B242D292DF7308312031315
:101A5800CD00BF30CC00CC0B2F2DCD0B2F2D342D2E
:101A68000F30F2000030F300F40120300A128A151A
:101A7800E8220A128A150038031D462D8312031323
:101A88008512492D83120313851653300A128A11C1
:101A980020240A128A15831203135A085606031DB6
:101AA8005F2D59085506031D5F2D58085406031D60
:101AB8005F2D570853060319632D621EB32C62125B
:101AC8000514851489140911E1010D30F200003064
:101AD800F300F40130300A128A15E8220A128A1536
:101AE8000038031D7B2D8312031385127E2D83126C
:101AF800031385160030CD00D730CC00CC0B822DD7
:101B0800CD0B822D003083120313CD00D730CC00CB
:101B1800CC0B8C2DCD0B8C2D003083120313CD00F4
:101B2800D730CC00CC0B962DCD0B962D00308312E0
:101B38000313CD00D730CC00CC0BA02DCD0BA02D9E
:101B4800003083120313CD00D730CC00CC0BAA2D64
:101B5800CD0BAA2D003083120313CD00D730CC0053
:101B6800CC0BB42DCD0BB42D003083120313CD0054
:101B7800D730CC00CC0BBE2DCD0BBE2D0030831240
:101B88000313CD00D730CC00CC0BC82DCD0BC82DFE
:101B9800003083120313CD00D730CC00CC0BD22DEC
:101BA800CD0BD22D003083120313CD00D730CC00DB
:101BB800CC0BDC2DCD0BDC2D831203130710061E76
:101BC800F02D0510851089100A128A1502200A12B4
:101BD8008A15831203138512861EE21EF42D091539
:101BE800061FE21EF82D0915861B002E0915013067
:101BF800CC004C08E107012E09110B108B1C0A2E92
:101C08002030E2060830850609118B105108FF00C4
:101C180050088A004F0884004E0E8300FE0E7E0E88
:101C28000900413083160313E200EE30E100E10BB6
:101C38001B2EE20B1B2E000083120313871130307A
:101C480083160313E1006108E3008312031387106E
:101C580007110F3083160313E10061088312031381
:101C680087058715831603136308E100610883124B
:101C7800031387043F2E402E8312031387110D3060
:101C880083160313E100E10B472E2030831603135C
:101C9800E1006108E3000F30E100610883120313DB
:101CA80087058715831603136308E100610883120B
:101CB800031387045F2E602E831203138711831684
:101CC8000313E30183120313631D6D2E831603139D
:101CD8006314031083160313E30D83120313621DA9
:101CE800782E83160313631483160313E30EE30D90
:101CF800E30DC030E3050F30E100610883120313E0
:101D080087058715831603136308E10061088312AA
:101D1800031387048F2E902E8312031387110D301F
:101D280083160313E100E10B972E2030831603136B
:101D3800E1006108E3000F30E1006108831203133A
:101D480087058715831603136308E100610883126A
:101D580003138704AF2EB02E831203138711831643
:101D68000313E30183120313631DBD2E83160313AC
:101D78006314031083160313E30D83120313621D08
:101D8800C82E83160313631483160313E30EE30D9F
:101D9800E30DC030E3050F30E1006108831203133F
:101DA80087058715831603136308E100610883120A
:101DB80003138704DF2EE02E8312031387110D30DF
:101DC80083160313E100E10BE72E83120313DB01F3
:101DD8000A168A11C2260A128A15013A031D092F0A
:101DE8001A3083160313E100E10BF82E00000130CE
:101DF80083160313E100610883120313DB0719300C
:101E08005B02031CEC2E013008000F30831603130D
:101E1800E10061088312031387058715132F142F18
:101E2800831203138711013083160313E10061083D
:101E3800E3000310E30D83120313631C262F83169C
:101E480003136314031083160313E30D83120313A0
:101E5800E21C312F83160313631403108316031334
:101E6800E30D83120313621C3C2F831603136314C0
:101E780083160313E30EF030E3058312031387156B
:101E8800831603136308E1006108831203138704B0
:101E98004D2F4E2F8312031387110D308316031312
:101EA800E100E10B552F83120313DB010A168A1197
:101EB800C2260A128A15013A031D772F1A30831693
:101EC8000313E100E10B662F0000013083160313B2
:101ED800E100610883120313DB0719305B02031C5E
:101EE8005A2F013008000F3083160313E1006108F0
:101EF8008312031387058715812F822F83120313FB
:101F08008711862F872F83120313871507168C2FA7
:101F18008D2F831203138711033083160313E200F6
:101F28009730E100E10B962FE20B962F9B2F83123F
:101F38000313DB010A168A11C2260A128A15013A0E
:101F4800031DBB2F1A3083160313E100E10BAA2FE0
:101F58000000013083160313E100610883120313A4
:101F6800DB0719305B02031C9E2F013008000F307D
:101F780083160313E100610883120313870587158D
:101F8800C52FC62F8312031387110130831603133D
:101F9800E1006108E3000310E30D83120313E31C5F
:101FA800D82F831603136314031083160313E30D4A
:101FB80083120313E21DE32F83160313631483169E
:101FC8000313E30EF030E30583120313871583161A
:101FD80003136308E1006108831203138704F42FD5
:101FE800F52F8312031387110D3083160313E100B5
:081FF800E10BFC2F0030080092
:102C7800003008007E088A007F0882003E260A1677
:102C88008A118000840A04087D0603190034FF0AAB
:102C98000319FE0A422EF1006400831603178C18EC
:102CA800502E7108831203178D003F30F000700812
:102CB800831603178C050C1403100C18031400302A
:102CC80003180130831203170C080800F20083165A
:102CD80003178C186B2E7208831203178D00700867
:102CE8008C003F30F1007108831603178C0583129E
:102CF800031303108B1B03148B13831603170C1574
:102D080055308D00AA308D008C140C1183120313DA
:102D1800031C08008B170800831203138711F03077
:102D2800F00070088316031387040F30F000700852
:102D3800831203138705871007158715A32EA42E62
:102D4800831203130708F0007008F1008711AC2EF6
:102D5800AD2E831203138715B12EB22E83120313DF
:102D6800871107110F30F0007008831603138705C9
:102D7800F11BC02E00300800013008008312031335
:102D88008711F03083160313DF005F0887040F30C4
:102D9800DF005F088312031387058710071587155F
:102DA800D52ED62E83120313070883160313DF00CC
:102DB8005F08E000831203138711E22EE32E8312CB
:102DC80003138715E72EE82E8312031387110711C3
:102DD8000F3083160313DF005F088705E01BF62E0C
:102DE80000300800013008000030FC000030FB0013
:102DF8000030FA000030F900701C162F7408F9072B
:102E0800750803110318013E031DFA07760803111C
:102E18000318013E031DFB07770803110318013E41
:102E2800031DFC070130F8000310F40DF50DF60D35
:102E3800F70DF80B182F01300310F30CF20CF10CFE
:102E4800F00CFF3E031D202F7308720471047004F8
:102E5800031D002F7C08F3007B08F2007A08F100BC
:102E68007908F00008008312031305110030F600FA
:102E7800D730F500F50B3E2FF60B3E2F0030F6004D
:102E8800D730F500F50B462FF60B462F0030F6002D
:102E9800D730F500F50B4E2FF60B4E2F0030F6000D
:102EA800D730F500F50B562FF60B562F0030F600ED
:102EB800D730F500F50B5E2FF60B5E2F8312031348
:102EC80005150A128A1539200A168A110038031DB9
:102ED800712F831203138512742F8312031385161F
:102EE80000300800503461347334733477346F34ED
:102EF8007234643420344334683461346E34673453
:102F0800653464340034573452344F344E344734C3
:102F18002034503441345334533457344F345234BA
:102F28004434213400344E3445345734203450343A
:102F380061347334733477346F34723464342034C6
:102F48003A3400344F344C344434203450346134EF
:102F58007334733477346F347234643420343A34CD
:102F68000034831203139001831603138701F03092
:102F780088000730E40064089C049D1307309F0014
:102F8800831203131F108316031381128501FF3068
:102F9800860081130B108B158B1001130B168312EF
:102FA80003136212631562116314E2106210E314D2
:102FB800E211E212E1018511831603130910891049
:102FC80009118312031309140510851089100911BA
:102FD80005150A128A1515260A168A110038031DC6
:102FE800F92F831203138512FC2F831203138516FE
:082FF80006088B176300FE2F91
:02400E003AFF77
:00000001FF
