:0600000000F04BEF00F0E0
:10000800FFFFFACF01F0FBCF02F0E9CF03F0EACF10
:1000180004F0E1CF05F0E2CF06F0D9CF07F0DACF50
:1000280008F0F3CF09F0F4CF0AF0F6CF0BF0F7CFD2
:100038000CF0F8CF0DF0F5CF0EF09EAC01D001D04A
:1000480008D09E9CC450FF0A8A6EC350FF0A8C6E6B
:1000580000D00EC0F5FF0DC0F8FF0CC0F7FF0BC0B5
:10006800F6FF0AC0F4FF09C0F3FF08C0DAFF07C0B3
:10007800D9FF06C0E2FF05C0E1FF04C0EAFF03C0E4
:10008800E9FF02C0FBFF01C0FAFF1100FFFF7FEF8D
:1000980000F0FFFFFFFFF00EC1160E0EC112C70ED3
:1000A800C216C28CC29EC18CC19E9268070E96125F
:1000B800000E936E3F0E956EC280D09E9E9C9D8CC6
:1000C8009F8C000EA16E000EA06E000EA26EF28C28
:1000D800F28E8A688C68C294FFFFC2B4FDD7030E03
:1000E800FFFF00F0E82EFCD7C284F6D7FFFFFFFF22
:0C00F800FFFFFFFFFFFF00014EEF00F0D4
:020000040020DA
:08000000FFFFFFFFFFFFFFFF00
:020000040030CA
:04000000FF220F0EBE
:0800060085FF0FC00FE00F4061
:00000001FF
