:0600000000F058EF00F0D3
:10000800FFFFFACF01F0FBCF02F0E9CF03F0EACF10
:1000180004F0E1CF05F0E2CF06F0D9CF07F0DACF50
:1000280008F0F3CF09F0F4CF0AF0F6CF0BF0F7CFD2
:100038000CF0F8CF0DF0F5CF0EF09EAA01D001D04C
:1000480015D09E9AAECF0FF00FC08CFFABA201D097
:1000580001D001D0AB98AC9CAC8A0FC0ADFFABB857
:1000680001D001D003D0AB8801D000D00EC0F5FF7D
:100078000DC0F8FF0CC0F7FF0BC0F6FF0AC0F4FF75
:1000880009C0F3FF08C0DAFF07C0D9FF06C0E2FFC6
:1000980005C0E1FF04C0EAFF03C0E9FF02C0FBFF9F
:1000A80001C0FAFF1100FFFF70EF00F0FFFFFFFF34
:1000B800190EAF6EAC84AB8EAC98D09EF28EF28CDB
:1000C8009D8AAB9CAB96AB889D98FFFFFED7FFFF40
:0E00D800FFFFFFFFFFFFFFFF00015BEF00F0E7
:020000040020DA
:08000000FFFFFFFFFFFFFFFF00
:020000040030CA
:04000000FF220F0EBE
:0800060085FF0FC00FE00F4061
:00000001FF
