:0600000000F049EF00F0E2
:10000800FFFFFACF01F0FBCF02F0E9CF03F0EACF10
:1000180004F0E1CF05F0E2CF06F0D9CF07F0DACF50
:1000280008F0F3CF09F0F4CF0AF0F6CF0BF0F7CFD2
:100038000CF0F8CF0DF0F5CF0EF09EA401D001D052
:1000480006D09E94000ECF6E000ECE6E00D00EC06D
:10005800F5FF0DC0F8FF0CC0F7FF0BC0F6FF0AC094
:10006800F4FF09C0F3FF08C0DAFF07C0D9FF06C0D4
:10007800E2FF05C0E1FF04C0EAFF03C0E9FF02C0D8
:10008800FBFF01C0FAFF1100FFFF6FEF00F0FFFF59
:10009800FFFFD09EC00EF26E9468000E9E6E9F68A1
:1000A800040E9D6E850ECD6E000EB16E020EBD6EF5
:1000B800010EBF6EF40EBE6E000EBA6EFE0E956E89
:1000C800010E836EFB0E946EFFFFFED7FFFFFFFF4E
:0C00D800FFFFFFFFFFFF00014CEF00F0F6
:020000040020DA
:08000000FFFFFFFFFFFFFFFF00
:020000040030CA
:04000000FF220F0EBE
:0800060085FF0FC00FE00F4061
:00000001FF
