:0600000000F070EF00F0BB
:10000800FFFFFACF01F0FBCF02F0E9CF03F0EACF10
:1000180004F0E1CF05F0E2CF06F0D9CF07F0DACF50
:1000280008F0F3CF09F0F4CF0AF0F6CF0BF0F7CFD2
:100038000CF0F8CF0DF0F5CF0EF0F2A001D001D002
:100048002DD081CF0FF0F2900F50C00BC00AD8B45A
:1000580001D001D023D09568280ECB6E050EBB6E5B
:1000680081BE01D001D003D04C0EBA6E07D081BC3E
:1000780001D001D003D0CC0EBA6E00D0000E9E6E17
:10008800040ECA6E01D000D09E50D8B401D001D061
:10009800FBD700D00F0E951601D000D00EC0F5FF8B
:1000A8000DC0F8FF0CC0F7FF0BC0F6FF0AC0F4FF45
:1000B80009C0F3FF08C0DAFF07C0D9FF06C0E2FF96
:1000C80005C0E1FF04C0EAFF03C0E9FF02C0FBFF6F
:1000D80001C0FAFF1100FFFF81EF00F0FFFFFFFFF3
:1000E800D098C80EF26E010EF16E9368FFFFFED72E
:1000F800FFFFFFFFFFFFFFFFFFFF000173EF00F0AF
:020000040020DA
:08000000FFFFFFFFFFFFFFFF00
:020000040030CA
:04000000FF220F0EBE
:0800060085FF0FC00FE00F4061
:00000001FF
