:0600000000F066EF1FF0A6
:103ECC0000016EEF1FF0FFFFFFFFFFFFFFFFFFFF83
:103EDC00FFFF9368000EF16EFE0E956EFE0E8C6E5B
:103EEC00C00E016E010EFFFFE82EFDD7012EFBD791
:103EFC0000F0C00E016E010EFFFFE82EFDD7012E63
:103F0C00FBD700F0C00E016E010EFFFFE82EFDD7AF
:103F1C00012EFBD700F0C00E016E010EFFFFE82E44
:103F2C00FDD7012EFBD700F0C00E016E010EFFFF76
:103F3C00E82EFDD7012EFBD700F0C00E016E010E4E
:103F4C00FFFFE82EFDD7012EFBD700F0C00E016E4F
:103F5C00010EFFFFE82EFDD7012EFBD700F0C00E9F
:103F6C00016E010EFFFFE82EFDD7012EFBD700F0EE
:103F7C00C00E016E010EFFFFE82EFDD7012EFBD700
:103F8C0000F00400C00E016E010EFFFFE82EFDD7FD
:103F9C00012EFBD700F08C68FFFF0400FFFF81AE01
:103FAC00FDD7FE0E8C6E620E016E760EFFFFE82EB4
:103FBC00FDD7012EFBD700F0620E016E760EFFFFCF
:103FCC00E82EFDD7012EFBD700F08C68620E016E37
:103FDC00760EFFFFE82EFDD7012EFBD700F0620E08
:103FEC00016E760EFFFFE82EFDD7012EFBD700F0F9
:043FFC00D3D7FFFF19
:020000040020DA
:08000000FFFFFFFFFFFFFFFF00
:020000040030CA
:04000000FF220F0FBD
:0800060085FF0FC00FE00F4061
:00000001FF
