:020000000F28C7
:10000800CE00030E83129100040892000A089300A0
:100018004F0894002C2810289A019B019C019D01EF
:100028009E019F01A001A101A201AB011822A3001A
:100038001922A4001A22A5001B22A6001C22A70030
:100048001D22A8001E22A9001F22AA0083016E29D2
:100058000B1D75280B11851D3C2801308F000F08DA
:10006800A20717302202031C3C2885118510A20123
:10007800851C4A28AB18442801308F000F089A07BE
:1000880017301A02031C4A2885109A01051C5728A4
:1000980001308F000F08A00717302002031C5728D3
:1000A80005100515A0012B185D2801308F000F08D9
:1000B8009F071F0A031D642801308F000F089E0741
:1000C80004301E02031C75289E019D012B129B0102
:1000D8000511851185100610861006118615AB15B9
:1000E80063000B1C5D29C33083129000CD308F0054
:1000F8008F0B7C28900B7C280A3083128F000F0806
:100108009C009F019E01AB1D8B28AB116229061F25
:10011800C2282B14061C92280130E328861C962836
:100128000430E328061D9A280730E328861D0A298B
:100138009D012B122B1D0829AB1CA528AB1086137B
:10014800B52801308F000F089B0703301B02031CE2
:10015800B5289B01AB14AC018C010030C721831278
:100168008617851482309000DD308F008F0BBA28F7
:10017800900BBA28BF28831285100829861ED52817
:100188002B14061CC9280230E328861CCD2805300C
:10019800E328061DD1280830E328861D0A299C017A
:1001A8000A29061E07292B14061CDC280330E3281D
:1001B800861CE0280630E328061DE72809308F0052
:1001C8000F089C000A29861D0A29AB1808292B1D2F
:1001D800F12805102B11051103292B1A00291D08D8
:1001E8002C060319FB2808301D06031D002985115C
:1001F80005142B15A0010329A201851585142B12BE
:100208009D019B0108292B100B1062290A301C0242
:1002180003185C29AB1C31293E302C0203185C29D9
:1002280001308F000F08AC071C088F000F088C00E6
:100238002C08C72183122C088F000F088C0000306F
:10024800C7218312851482309000DD308F008F0B18
:100258002B29900B2B2930295A292B195C292B1A69
:10026800502901308F000F089D071D0800228312B6
:100278008F000F08A10021081C0603195029093016
:100288001D0203184F291D08FF3E233E84008313D7
:1002980000081C06031D2B16851482309000DD30E3
:1002A8008F008F0B5529900B55295A2983128510D9
:1002B8000B100B1F6229831285100B13831214086D
:1002C800CF0013088A0012088400110E8300CE0E96
:1002D8004E0E090068308B00873083168100831228
:1002E8008501831685018312860170308316860086
:1002F8008312AB102B122B11AB112B100030E821FD
:10030800831297001708AC009D019F019E01A2016E
:100318009A01A0019B010510051585158617063061
:10032800990013309800B1309700970B9929980BD2
:100338009929990B9929A0298312051185118613EA
:1003480085108B178610061186110614000083127B
:100358002B18AB290610061186118614000083128B
:100368002B18B32906108610861106150000831273
:100378002B18BB290610861006118615000083125B
:100388002B1CA629C32983128E0083168818C92915
:1003980083120E0889000C0888003F308D000D0874
:1003A80083168805831203108B1B03148B13831683
:1003B800081555308900AA3089008814081183125D
:1003C800031C08008B17080083129600640083162C
:1003D8008818EA298312160889003F309500150805
:1003E800831688050814031008180314003003182E
:1003F800013083120808080083128D0064008316F8
:100408008818022A83120D0889003F308C000C08D6
:1004180083168805081403100818031400300318FD
:100428000130831208080800043405340034073406
:080438000334093402340734D7
:02400E0002C0EE
:104200000000FF00FF00FF00FF00FF00FF00FF00B5
:00000001FF
