:0600000000F0BEEF00F06D
:10000800FFFFFACF0DF0FBCF0EF0E9CF0FF0EACFEC
:1000180010F0E1CF11F0E2CF12F0D9CF13F0DACF20
:1000280014F0F3CF15F0F4CF16F0F6CF17F0F7CFA2
:1000380018F0F8CF19F0F5CF1AF09EA001D001D032
:1000480009D09E90020E286001D001D003D0282A42
:1000580001D000D09EA401D001D06ED09E94020E93
:10006800286001D001D061D0BECF1FF0BF50206EF4
:10007800216A226A236A22C023F021C022F020C00C
:1000880021F0206A1F50201224C001F025C002F080
:1000980026C003F027C004F0011E021E031E041E22
:1000A800012A000E02220322042228C005F0066A53
:1000B800076A086A06C008F005C007F0066A056AFC
:1000C80001500524096E025006200A6E03500720CD
:1000D8000B6E045008200C6E205009241B6E215012
:1000E8000A201C6E22500B201D6E23500C201E6E01
:1000F800E80E1B5C030E1C58000E1D58000E1E58FF
:10010800D8B001D001D002D0839002D0838000D033
:1001180020C024F021C025F022C026F023C027F0FB
:10012800016E000E286E015007D08380016E000E0C
:10013800286E015001D000D01AC0F5FF19C0F8FF91
:1001480018C0F7FF17C0F6FF16C0F4FF15C0F3FF7D
:1001580014C0DAFF13C0D9FF12C0E2FF11C0E1FFDB
:1001680010C0EAFF0FC0E9FF0EC0FBFF0DC0FAFF89
:100178001100FFFFDBEF00F0FFFFFFFFD09EC00E76
:10018800F26E000E9E6E050E9D6E9F68FE0E956EB9
:100198008368FB0E946E850ECD6E000EB16E000E58
:1001A800BA6E050EBD6E9484FFFFFED7FFFF286A66
:1001B800276A266A256A246A0001C1EF00F0FFFF5A
:0601C800FFFFFFFFFFFF37
:020000040020DA
:08000000FFFFFFFFFFFFFFFF00
:020000040030CA
:04000000FF220F0EBE
:0800060085FF0FC00FE00F4061
:00000001FF
