:060000000A128A11122809
:10000800FE00030EF9000408FA000A08FB00831238
:1000180003137F08FC000A128A111C280A128A118D
:100028001528FD01A001A10183010A128A11A12846
:100038000C1C54280130F6007608A10720187D18FA
:100048004C280330F0000030F1002108F600F701D9
:100058007608F2007708F3000A128A11E0200A12E3
:100068008A1170087104031D4C287D1D3E288312D7
:10007800031351280230FD06FD1C46288312031382
:100088000711492883120313071507147D155328F0
:1000980083120313201C7D1D532807107D110C109B
:1000A8008B1C6A2820185E280715FD1007142014D9
:1000B8007D156128071020107D11C330F700CD3061
:1000C800F600F60B6528F70B65288B100B1C942897
:1000D80083120313061A9328083087060130FD0699
:1000E8007D1C8F28FD1C862807100B30F800263051
:1000F800F7006630F600F60B7F28F70B7F28F80B21
:100108007F288628831203130715FD108714071408
:1001180020147D1593288710071020107D110B10CF
:100128007C0883120313FF007B088A007A08840086
:10013800790E8300FE0E7E0E09008B1358308B005B
:100148000330831603138C008D01831203138C0173
:100158008D010F30831603138100831203139F014F
:100168000730831603139F0007309C009D018312FC
:1001780003139412831603138501FF30860083123C
:10018800031397019D0198138316031387018801B0
:1001980007308900831203138101303090007B30CF
:1001A8009200FF308316031392000A128A1112215B
:1001B8000A128A118B17DF287008710403190D2998
:1001C800F501F50AF11BF42801300310F00DF10DCB
:1001D800FF3E031DE9280130F4007408F507E628FE
:1001E80071087302031DFA2870087202031C0229A1
:1001F8007008F2027108031CF303F30201300310C4
:10020800F10CF00CFF3E031D03290130F502031D1C
:10021800F4287308F1007208F00008008312031331
:10022800A10107108710071520107D1088100810ED
:0A02380085128E018F0110140800DA
:02400E00713F00
:00000001FF
