:0600000000F053EF00F0D8
:10000800FFFFFACF1DF0FBCF1EF0E9CF1FF0EACFBC
:1000180020F0E1CF21F0E2CF22F0D9CF23F0DACFE0
:1000280024F0F3CF25F0F4CF26F0F6CF27F0F7CF62
:1000380028F0F8CF29F0F5CF2AF0F2A401D001D0AA
:1000480010D0000E186E2B0E176E6F0E196E120E52
:100058001A6E830E1B6E410E1C6ED9EC01F0F294E1
:1000680000D02AC0F5FF29C0F8FF28C0F7FF27C035
:10007800F6FF26C0F4FF25C0F3FF24C0DAFF23C033
:10008800D9FF22C0E2FF21C0E1FF20C0EAFF1FC064
:10009800E9FF1EC0FBFF1DC0FAFF1100FFFF12EFB2
:1000A80002F0FFFFFFFF0D340E34166E11341234C8
:1000B800156E1650D8B40BD01550166012D01650C5
:1000C80000081524136E210E135CD8A00AD0FFFF78
:1000D8000FC00BF010C00CF011C00DF012C00EF0E4
:1000E800D4D0FFFF1550D8B40BD01650156012D0DD
:1000F800155000081624136E210E135CD8A00AD0E0
:10010800FFFF0BC00BF00CC00CF00DC00DF00EC0C3
:100118000EF0BBD0FFFF136E060E146E13500EBE0A
:10012800148E12BE148C0D8EFF0E0B16FF0E0C16BD
:10013800FF0E0D16000E0E16118EFF0E0F16FF0E77
:100148001016FF0E1116000E1216155016601DD04F
:10015800FFFFD8900F361036113612361506155097
:100168001618D8B40DD014061450070BD8B408D0FC
:10017800EFD7FFFFD8900E320D320C320B32162A11
:10018800FFFF15501662F5D720D0FFFF16501560F7
:100198001CD0FFFFD8900B360C360D360E361606DF
:1001A80015501618D8B40DD014061450070BD8B42F
:1001B80008D0EFD7FFFFD8901232113210320F3229
:1001C800152AFFFF15501662F5D7FFFF14AE10D0A1
:1001D800FF0E0B1AFF0E0C1AFF0E0D1AFF0E0E1A49
:1001E800010E0B26000E0C22000E0D22000E0E2210
:1001F800FFFF14AC10D0FF0E0F1AFF0E101AFF0EDF
:10020800111AFF0E121A010E0F26000E1022000EF0
:100218001122000E1222FFFF136E000E146E1350EF
:100228000B500F260C5010220D5011220E50122286
:1002380012AE14D0FF0E0F1AFF0E101AFF0E111A6D
:10024800FF0E121A010E0F26000E1022000E1122A8
:10025800000E1222136E010E146E1350FFFF0FC012
:1002680001F010C002F011C003F012C004F016C073
:1002780005F014C006F04EEC01F004C00EF003C007
:100288000DF002C00CF001C00BF0FFFF1200FFFFE1
:10029800FFFFFFFFFFFF0550D8B406D00450011040
:1002A80002100310D8A411D0FFFF000E016E000E3B
:1002B800026E000E036E000E046E72D0FFFF052A58
:1002C800D8900432033202320132FFFF000E0114CB
:1002D800076E000E0214086E000E0314096EFE0E5F
:1002E80004140A6E0A50071008100910D8B410D068
:1002F800E5D7FFFF052A010E0126000E0222000E97
:100308000322000E0422D890043203320232013252
:10031800FFFF000E0114076E000E0214086E000E97
:100328000314096EFF0E04140A6E0A500710081011
:100338000910D8B408D0DDD7FFFF0506D8900136DC
:10034800023603360436FFFF03AEF6D705B008D0F1
:10035800FF0E0116FF0E02167F0E0316FF0E04167F
:10036800FFFFD890053205C007F0086A096A0A6AD3
:1003780007C00AF0096A086A076A0750011208509C
:100388000212095003120A5004120650D8A4048E0F
:1003980001C001F002C002F003C003F004C004F081
:1003A800FFFF1200FFFFFFFFFFFFFFFF17C0D9FF8E
:1003B80018C0DAFFDECF0BF0DECF0CF0DECF0DF089
:1003C800DECF0EF019C00FF01AC010F01BC011F0EC
:1003D8001CC012F056EC00F017C0D9FF18C0DAFFA5
:1003E8000BC0DEFF0CC0DEFF0DC0DEFF0EC0DDFF60
:1003F800D906D9061200FFFFFFFFFFFFFFFFE00E3F
:10040800F26E000EF16EC80ED56E000E936EFFFFF1
:10041800000E8A6E000E816EFAD7FFFF2E6A2D6AD3
:100428002C6A2B6A000102EF02F0FFFFFFFFFFFFBB
:02043800FFFFC4
:020000040020DA
:08000000FFFFFFFFFFFFFFFF00
:020000040030CA
:04000000FF230F0EBD
:0800060085FF0FC00FE00F4061
:00000001FF
