:0600000000F06AEF00F0C1
:10000800FFFFFACF02F0FBCF03F0E9CF04F0EACF0D
:1000180005F0E1CF06F0E2CF07F0D9CF08F0DACF4C
:1000280009F0F3CF0AF0F4CF0BF0F6CF0CF0F7CFCE
:100038000DF0F8CF0EF0F5CF0FF09EA001D001D053
:100048001BD09E900B0ECF6EDC0ECE6E102A030EC8
:10005800106401D001D010D0112A3B0E116401D0D8
:1000680001D004D0016E000E116E0150016E000E19
:10007800106E015001D000D0F0A001D001D008D0FE
:10008800F0901144E846FC0B1010FF0A8C6E00D06B
:100098000FC0F5FF0EC0F8FF0DC0F7FF0CC0F6FF4C
:1000A8000BC0F4FF0AC0F3FF09C0DAFF08C0D9FF8C
:1000B80007C0E2FF06C0E1FF05C0EAFF04C0E9FF90
:1000C80003C0FBFF02C0FAFF1100FFFF88EF00F03A
:1000D800FFFFFFFFD09EC00EF26E800EF16E480E3D
:1000E800F06E000E9E6E010E9D6E010E9F6EA50EA7
:1000F800CD6E0B0ECF6EDC0ECE6E9350000E956E4D
:100108008C68FFFFFED7FFFF116A106A00016DEFD0
:0A01180000F0FFFFFFFFFFFFFFFFF5
:020000040020DA
:08000000FFFFFFFFFFFFFFFF00
:020000040030CA
:04000000FF220F0EBE
:0800060085FF0FC00FE00F4061
:00000001FF
