:060000000A128A11122809
:10000800FE00030EF1000408F2000A08F300831250
:1000180003137F08F4000A128A1119280A128A1198
:10002800152883010A128A11712883160313941A5A
:100038005D28831203131308F0007008F500831677
:100048000313941C5428013084000A128A11912049
:100058000A128A11F0007008F500F50803193E2805
:10006800023084000A128A1191200A128A1183121E
:1000780003139300023084000A128A1191200A1295
:100088008A11F0007008F500F508031954280130AA
:1000980084000A128A1191200A128A11831293008D
:1000A80083160313141D5D28831203130608930097
:1000B800141683160313941E65288312031313085A
:1000C800880074088312FF0073088A00720884008D
:1000D800710E8300FE0E7E0E09008B170B1783121C
:1000E80003138C11831603138C158113FF308600BC
:1000F80088010912FF308312031388008316031343
:100108009417141337308312031394006030831646
:1001180003139100FF308700902800308A000408FC
:0A012800840A82070034F0348034AA
:02400E00FAFFB7
:00000001FF
