:040000008A11112828
:10000800FE00030EFA000408FB000A08FC00831235
:1000180003137F08FD008A111D288A111328A001E7
:10002800A101A201A30183160313A00183018A1170
:10003800B9280B1C8D28851862280330F000003081
:10004800F1000130F6007608A1072108F700F80151
:100058007708F2007808F3008A11F3208A117008F3
:10006800F900790883120313A10057280130F6001C
:100078007608A40007128712871562280A30F6004E
:100088007608A40087118712071662281430F60034
:100098007608A4008711071287166228A401871121
:1000A8000712871262282108003A03193A28013AF0
:1000B80003194228033A03194A28522805188128A7
:1000C80083160313201C73288312031307101010C0
:1000D8008316031320108312031307118128831238
:1000E800A201A301A0018E018F0107141014831629
:1000F800031320148312031307159C30F700D7301D
:10010800F600F60B8528F70B8528831203130508DC
:100118000B100C1CAE280130F6007608A2070F3031
:100128002202031C9B280130F6007608A3073C3006
:100138002302031CAC280130F6007608A007240827
:100148002002031CAC280710071183160313201084
:1001580083120C107D08FF007C088A007B0884004D
:100168007A0E8300FE0E7E0E09008B1348308B003A
:100178000130831603138C00831203138C01103093
:10018800831603138E00073081003F3085009101EC
:10019800033095000330960007308312031399004B
:1001A80083160313870180308312031390009A018A
:1001B8008F018E01A1010130A5002508A400A2012C
:1001C800A301A00183160313201083120313071041
:1001D800071187150712871287148B17F2287008E2
:1001E800710403192029F501F50AF11B07290130CB
:1001F8000310F00DF10DFF3E031DFC280130F40043
:100208007408F507F92871087302031D0D29700891
:100218007202031C15297008F2027108031CF3030B
:10022800F30201300310F10CF00CFF3E031D1629F8
:100238000130F502031D07297308F1007208F00068
:020248000800AC
:02400E00E4F2DA
:00000001FF
